{
  "_format": "hh-sol-artifact-1",
  "contractName": "FINToken",
  "sourceName": "contracts/FINToken.sol",
  "abi": [
    {
      "inputs": [],
      "stateMutability": "nonpayable",
      "type": "constructor"
    },
    {
      "inputs": [],
      "name": "AccessControlBadConfirmation",
      "type": "error"
    },
    {
      "inputs": [
        {
          "internalType": "address",
          "name": "account",
          "type": "address"
        },
        {
          "internalType": "bytes32",
          "name": "neededRole",
          "type": "bytes32"
        }
      ],
      "name": "AccessControlUnauthorizedAccount",
      "type": "error"
    },
    {
      "inputs": [
        {
          "internalType": "address",
          "name": "target",
          "type": "address"
        }
      ],
      "name": "AddressEmptyCode",
      "type": "error"
    },
    {
      "inputs": [],
      "name": "ECDSAInvalidSignature",
      "type": "error"
    },
    {
      "inputs": [
        {
          "internalType": "uint256",
          "name": "length",
          "type": "uint256"
        }
      ],
      "name": "ECDSAInvalidSignatureLength",
      "type": "error"
    },
    {
      "inputs": [
        {
          "internalType": "bytes32",
          "name": "s",
          "type": "bytes32"
        }
      ],
      "name": "ECDSAInvalidSignatureS",
      "type": "error"
    },
    {
      "inputs": [
        {
          "internalType": "address",
          "name": "implementation",
          "type": "address"
        }
      ],
      "name": "ERC1967InvalidImplementation",
      "type": "error"
    },
    {
      "inputs": [],
      "name": "ERC1967NonPayable",
      "type": "error"
    },
    {
      "inputs": [
        {
          "internalType": "address",
          "name": "spender",
          "type": "address"
        },
        {
          "internalType": "uint256",
          "name": "allowance",
          "type": "uint256"
        },
        {
          "internalType": "uint256",
          "name": "needed",
          "type": "uint256"
        }
      ],
      "name": "ERC20InsufficientAllowance",
      "type": "error"
    },
    {
      "inputs": [
        {
          "internalType": "address",
          "name": "sender",
          "type": "address"
        },
        {
          "internalType": "uint256",
          "name": "balance",
          "type": "uint256"
        },
        {
          "internalType": "uint256",
          "name": "needed",
          "type": "uint256"
        }
      ],
      "name": "ERC20InsufficientBalance",
      "type": "error"
    },
    {
      "inputs": [
        {
          "internalType": "address",
          "name": "approver",
          "type": "address"
        }
      ],
      "name": "ERC20InvalidApprover",
      "type": "error"
    },
    {
      "inputs": [
        {
          "internalType": "address",
          "name": "receiver",
          "type": "address"
        }
      ],
      "name": "ERC20InvalidReceiver",
      "type": "error"
    },
    {
      "inputs": [
        {
          "internalType": "address",
          "name": "sender",
          "type": "address"
        }
      ],
      "name": "ERC20InvalidSender",
      "type": "error"
    },
    {
      "inputs": [
        {
          "internalType": "address",
          "name": "spender",
          "type": "address"
        }
      ],
      "name": "ERC20InvalidSpender",
      "type": "error"
    },
    {
      "inputs": [
        {
          "internalType": "uint256",
          "name": "deadline",
          "type": "uint256"
        }
      ],
      "name": "ERC2612ExpiredSignature",
      "type": "error"
    },
    {
      "inputs": [
        {
          "internalType": "address",
          "name": "signer",
          "type": "address"
        },
        {
          "internalType": "address",
          "name": "owner",
          "type": "address"
        }
      ],
      "name": "ERC2612InvalidSigner",
      "type": "error"
    },
    {
      "inputs": [],
      "name": "EnforcedPause",
      "type": "error"
    },
    {
      "inputs": [],
      "name": "ExpectedPause",
      "type": "error"
    },
    {
      "inputs": [],
      "name": "FailedCall",
      "type": "error"
    },
    {
      "inputs": [
        {
          "internalType": "address",
          "name": "account",
          "type": "address"
        },
        {
          "internalType": "uint256",
          "name": "currentNonce",
          "type": "uint256"
        }
      ],
      "name": "InvalidAccountNonce",
      "type": "error"
    },
    {
      "inputs": [],
      "name": "InvalidInitialization",
      "type": "error"
    },
    {
      "inputs": [],
      "name": "NotInitializing",
      "type": "error"
    },
    {
      "inputs": [],
      "name": "UUPSUnauthorizedCallContext",
      "type": "error"
    },
    {
      "inputs": [
        {
          "internalType": "bytes32",
          "name": "slot",
          "type": "bytes32"
        }
      ],
      "name": "UUPSUnsupportedProxiableUUID",
      "type": "error"
    },
    {
      "anonymous": false,
      "inputs": [
        {
          "indexed": true,
          "internalType": "address",
          "name": "owner",
          "type": "address"
        },
        {
          "indexed": true,
          "internalType": "address",
          "name": "spender",
          "type": "address"
        },
        {
          "indexed": false,
          "internalType": "uint256",
          "name": "value",
          "type": "uint256"
        }
      ],
      "name": "Approval",
      "type": "event"
    },
    {
      "anonymous": false,
      "inputs": [],
      "name": "EIP712DomainChanged",
      "type": "event"
    },
    {
      "anonymous": false,
      "inputs": [
        {
          "indexed": true,
          "internalType": "address",
          "name": "pauser",
          "type": "address"
        },
        {
          "indexed": false,
          "internalType": "string",
          "name": "reason",
          "type": "string"
        }
      ],
      "name": "EmergencyPause",
      "type": "event"
    },
    {
      "anonymous": false,
      "inputs": [
        {
          "indexed": true,
          "internalType": "address",
          "name": "pauser",
          "type": "address"
        }
      ],
      "name": "EmergencyUnpause",
      "type": "event"
    },
    {
      "anonymous": false,
      "inputs": [
        {
          "indexed": false,
          "internalType": "uint64",
          "name": "version",
          "type": "uint64"
        }
      ],
      "name": "Initialized",
      "type": "event"
    },
    {
      "anonymous": false,
      "inputs": [
        {
          "indexed": false,
          "internalType": "address",
          "name": "account",
          "type": "address"
        }
      ],
      "name": "Paused",
      "type": "event"
    },
    {
      "anonymous": false,
      "inputs": [
        {
          "indexed": true,
          "internalType": "bytes32",
          "name": "role",
          "type": "bytes32"
        },
        {
          "indexed": true,
          "internalType": "bytes32",
          "name": "previousAdminRole",
          "type": "bytes32"
        },
        {
          "indexed": true,
          "internalType": "bytes32",
          "name": "newAdminRole",
          "type": "bytes32"
        }
      ],
      "name": "RoleAdminChanged",
      "type": "event"
    },
    {
      "anonymous": false,
      "inputs": [
        {
          "indexed": true,
          "internalType": "bytes32",
          "name": "role",
          "type": "bytes32"
        },
        {
          "indexed": true,
          "internalType": "address",
          "name": "account",
          "type": "address"
        },
        {
          "indexed": true,
          "internalType": "address",
          "name": "sender",
          "type": "address"
        }
      ],
      "name": "RoleGranted",
      "type": "event"
    },
    {
      "anonymous": false,
      "inputs": [
        {
          "indexed": true,
          "internalType": "bytes32",
          "name": "role",
          "type": "bytes32"
        },
        {
          "indexed": true,
          "internalType": "address",
          "name": "account",
          "type": "address"
        },
        {
          "indexed": true,
          "internalType": "address",
          "name": "sender",
          "type": "address"
        }
      ],
      "name": "RoleRevoked",
      "type": "event"
    },
    {
      "anonymous": false,
      "inputs": [
        {
          "indexed": true,
          "internalType": "address",
          "name": "from",
          "type": "address"
        },
        {
          "indexed": false,
          "internalType": "uint256",
          "name": "amount",
          "type": "uint256"
        }
      ],
      "name": "TokensBurned",
      "type": "event"
    },
    {
      "anonymous": false,
      "inputs": [
        {
          "indexed": true,
          "internalType": "address",
          "name": "to",
          "type": "address"
        },
        {
          "indexed": false,
          "internalType": "uint256",
          "name": "amount",
          "type": "uint256"
        },
        {
          "indexed": true,
          "internalType": "address",
          "name": "minter",
          "type": "address"
        }
      ],
      "name": "TokensMinted",
      "type": "event"
    },
    {
      "anonymous": false,
      "inputs": [
        {
          "indexed": true,
          "internalType": "address",
          "name": "from",
          "type": "address"
        },
        {
          "indexed": true,
          "internalType": "address",
          "name": "to",
          "type": "address"
        },
        {
          "indexed": false,
          "internalType": "uint256",
          "name": "value",
          "type": "uint256"
        }
      ],
      "name": "Transfer",
      "type": "event"
    },
    {
      "anonymous": false,
      "inputs": [
        {
          "indexed": false,
          "internalType": "address",
          "name": "account",
          "type": "address"
        }
      ],
      "name": "Unpaused",
      "type": "event"
    },
    {
      "anonymous": false,
      "inputs": [
        {
          "indexed": true,
          "internalType": "address",
          "name": "implementation",
          "type": "address"
        }
      ],
      "name": "Upgraded",
      "type": "event"
    },
    {
      "inputs": [],
      "name": "DEFAULT_ADMIN_ROLE",
      "outputs": [
        {
          "internalType": "bytes32",
          "name": "",
          "type": "bytes32"
        }
      ],
      "stateMutability": "view",
      "type": "function"
    },
    {
      "inputs": [],
      "name": "DOMAIN_SEPARATOR",
      "outputs": [
        {
          "internalType": "bytes32",
          "name": "",
          "type": "bytes32"
        }
      ],
      "stateMutability": "view",
      "type": "function"
    },
    {
      "inputs": [],
      "name": "MAX_SUPPLY",
      "outputs": [
        {
          "internalType": "uint256",
          "name": "",
          "type": "uint256"
        }
      ],
      "stateMutability": "view",
      "type": "function"
    },
    {
      "inputs": [],
      "name": "MINTER_ROLE",
      "outputs": [
        {
          "internalType": "bytes32",
          "name": "",
          "type": "bytes32"
        }
      ],
      "stateMutability": "view",
      "type": "function"
    },
    {
      "inputs": [],
      "name": "PAUSER_ROLE",
      "outputs": [
        {
          "internalType": "bytes32",
          "name": "",
          "type": "bytes32"
        }
      ],
      "stateMutability": "view",
      "type": "function"
    },
    {
      "inputs": [],
      "name": "UPGRADER_ROLE",
      "outputs": [
        {
          "internalType": "bytes32",
          "name": "",
          "type": "bytes32"
        }
      ],
      "stateMutability": "view",
      "type": "function"
    },
    {
      "inputs": [],
      "name": "UPGRADE_INTERFACE_VERSION",
      "outputs": [
        {
          "internalType": "string",
          "name": "",
          "type": "string"
        }
      ],
      "stateMutability": "view",
      "type": "function"
    },
    {
      "inputs": [
        {
          "internalType": "address",
          "name": "owner",
          "type": "address"
        },
        {
          "internalType": "address",
          "name": "spender",
          "type": "address"
        }
      ],
      "name": "allowance",
      "outputs": [
        {
          "internalType": "uint256",
          "name": "",
          "type": "uint256"
        }
      ],
      "stateMutability": "view",
      "type": "function"
    },
    {
      "inputs": [
        {
          "internalType": "address",
          "name": "spender",
          "type": "address"
        },
        {
          "internalType": "uint256",
          "name": "value",
          "type": "uint256"
        }
      ],
      "name": "approve",
      "outputs": [
        {
          "internalType": "bool",
          "name": "",
          "type": "bool"
        }
      ],
      "stateMutability": "nonpayable",
      "type": "function"
    },
    {
      "inputs": [
        {
          "internalType": "address",
          "name": "account",
          "type": "address"
        }
      ],
      "name": "balanceOf",
      "outputs": [
        {
          "internalType": "uint256",
          "name": "",
          "type": "uint256"
        }
      ],
      "stateMutability": "view",
      "type": "function"
    },
    {
      "inputs": [
        {
          "internalType": "uint256",
          "name": "amount",
          "type": "uint256"
        }
      ],
      "name": "burn",
      "outputs": [],
      "stateMutability": "nonpayable",
      "type": "function"
    },
    {
      "inputs": [
        {
          "internalType": "address",
          "name": "account",
          "type": "address"
        },
        {
          "internalType": "uint256",
          "name": "amount",
          "type": "uint256"
        }
      ],
      "name": "burnFrom",
      "outputs": [],
      "stateMutability": "nonpayable",
      "type": "function"
    },
    {
      "inputs": [],
      "name": "decimals",
      "outputs": [
        {
          "internalType": "uint8",
          "name": "",
          "type": "uint8"
        }
      ],
      "stateMutability": "view",
      "type": "function"
    },
    {
      "inputs": [],
      "name": "eip712Domain",
      "outputs": [
        {
          "internalType": "bytes1",
          "name": "fields",
          "type": "bytes1"
        },
        {
          "internalType": "string",
          "name": "name",
          "type": "string"
        },
        {
          "internalType": "string",
          "name": "version",
          "type": "string"
        },
        {
          "internalType": "uint256",
          "name": "chainId",
          "type": "uint256"
        },
        {
          "internalType": "address",
          "name": "verifyingContract",
          "type": "address"
        },
        {
          "internalType": "bytes32",
          "name": "salt",
          "type": "bytes32"
        },
        {
          "internalType": "uint256[]",
          "name": "extensions",
          "type": "uint256[]"
        }
      ],
      "stateMutability": "view",
      "type": "function"
    },
    {
      "inputs": [
        {
          "internalType": "bytes32",
          "name": "role",
          "type": "bytes32"
        }
      ],
      "name": "getRoleAdmin",
      "outputs": [
        {
          "internalType": "bytes32",
          "name": "",
          "type": "bytes32"
        }
      ],
      "stateMutability": "view",
      "type": "function"
    },
    {
      "inputs": [
        {
          "internalType": "bytes32",
          "name": "role",
          "type": "bytes32"
        },
        {
          "internalType": "address",
          "name": "account",
          "type": "address"
        }
      ],
      "name": "grantRole",
      "outputs": [],
      "stateMutability": "nonpayable",
      "type": "function"
    },
    {
      "inputs": [
        {
          "internalType": "bytes32",
          "name": "role",
          "type": "bytes32"
        },
        {
          "internalType": "address",
          "name": "account",
          "type": "address"
        }
      ],
      "name": "hasRole",
      "outputs": [
        {
          "internalType": "bool",
          "name": "",
          "type": "bool"
        }
      ],
      "stateMutability": "view",
      "type": "function"
    },
    {
      "inputs": [
        {
          "internalType": "address",
          "name": "admin",
          "type": "address"
        }
      ],
      "name": "initialize",
      "outputs": [],
      "stateMutability": "nonpayable",
      "type": "function"
    },
    {
      "inputs": [
        {
          "internalType": "address",
          "name": "to",
          "type": "address"
        },
        {
          "internalType": "uint256",
          "name": "amount",
          "type": "uint256"
        }
      ],
      "name": "mint",
      "outputs": [],
      "stateMutability": "nonpayable",
      "type": "function"
    },
    {
      "inputs": [],
      "name": "name",
      "outputs": [
        {
          "internalType": "string",
          "name": "",
          "type": "string"
        }
      ],
      "stateMutability": "view",
      "type": "function"
    },
    {
      "inputs": [
        {
          "internalType": "address",
          "name": "owner",
          "type": "address"
        }
      ],
      "name": "nonces",
      "outputs": [
        {
          "internalType": "uint256",
          "name": "",
          "type": "uint256"
        }
      ],
      "stateMutability": "view",
      "type": "function"
    },
    {
      "inputs": [
        {
          "internalType": "string",
          "name": "reason",
          "type": "string"
        }
      ],
      "name": "pause",
      "outputs": [],
      "stateMutability": "nonpayable",
      "type": "function"
    },
    {
      "inputs": [],
      "name": "paused",
      "outputs": [
        {
          "internalType": "bool",
          "name": "",
          "type": "bool"
        }
      ],
      "stateMutability": "view",
      "type": "function"
    },
    {
      "inputs": [
        {
          "internalType": "address",
          "name": "owner",
          "type": "address"
        },
        {
          "internalType": "address",
          "name": "spender",
          "type": "address"
        },
        {
          "internalType": "uint256",
          "name": "value",
          "type": "uint256"
        },
        {
          "internalType": "uint256",
          "name": "deadline",
          "type": "uint256"
        },
        {
          "internalType": "uint8",
          "name": "v",
          "type": "uint8"
        },
        {
          "internalType": "bytes32",
          "name": "r",
          "type": "bytes32"
        },
        {
          "internalType": "bytes32",
          "name": "s",
          "type": "bytes32"
        }
      ],
      "name": "permit",
      "outputs": [],
      "stateMutability": "nonpayable",
      "type": "function"
    },
    {
      "inputs": [],
      "name": "proxiableUUID",
      "outputs": [
        {
          "internalType": "bytes32",
          "name": "",
          "type": "bytes32"
        }
      ],
      "stateMutability": "view",
      "type": "function"
    },
    {
      "inputs": [
        {
          "internalType": "bytes32",
          "name": "role",
          "type": "bytes32"
        },
        {
          "internalType": "address",
          "name": "callerConfirmation",
          "type": "address"
        }
      ],
      "name": "renounceRole",
      "outputs": [],
      "stateMutability": "nonpayable",
      "type": "function"
    },
    {
      "inputs": [
        {
          "internalType": "bytes32",
          "name": "role",
          "type": "bytes32"
        },
        {
          "internalType": "address",
          "name": "account",
          "type": "address"
        }
      ],
      "name": "revokeRole",
      "outputs": [],
      "stateMutability": "nonpayable",
      "type": "function"
    },
    {
      "inputs": [
        {
          "internalType": "bytes4",
          "name": "interfaceId",
          "type": "bytes4"
        }
      ],
      "name": "supportsInterface",
      "outputs": [
        {
          "internalType": "bool",
          "name": "",
          "type": "bool"
        }
      ],
      "stateMutability": "view",
      "type": "function"
    },
    {
      "inputs": [],
      "name": "symbol",
      "outputs": [
        {
          "internalType": "string",
          "name": "",
          "type": "string"
        }
      ],
      "stateMutability": "view",
      "type": "function"
    },
    {
      "inputs": [],
      "name": "totalSupply",
      "outputs": [
        {
          "internalType": "uint256",
          "name": "",
          "type": "uint256"
        }
      ],
      "stateMutability": "view",
      "type": "function"
    },
    {
      "inputs": [
        {
          "internalType": "address",
          "name": "to",
          "type": "address"
        },
        {
          "internalType": "uint256",
          "name": "value",
          "type": "uint256"
        }
      ],
      "name": "transfer",
      "outputs": [
        {
          "internalType": "bool",
          "name": "",
          "type": "bool"
        }
      ],
      "stateMutability": "nonpayable",
      "type": "function"
    },
    {
      "inputs": [
        {
          "internalType": "address",
          "name": "from",
          "type": "address"
        },
        {
          "internalType": "address",
          "name": "to",
          "type": "address"
        },
        {
          "internalType": "uint256",
          "name": "value",
          "type": "uint256"
        }
      ],
      "name": "transferFrom",
      "outputs": [
        {
          "internalType": "bool",
          "name": "",
          "type": "bool"
        }
      ],
      "stateMutability": "nonpayable",
      "type": "function"
    },
    {
      "inputs": [],
      "name": "unpause",
      "outputs": [],
      "stateMutability": "nonpayable",
      "type": "function"
    },
    {
      "inputs": [
        {
          "internalType": "address",
          "name": "newImplementation",
          "type": "address"
        },
        {
          "internalType": "bytes",
          "name": "data",
          "type": "bytes"
        }
      ],
      "name": "upgradeToAndCall",
      "outputs": [],
      "stateMutability": "payable",
      "type": "function"
    }
  ],
  "bytecode": "0x60a080604052346100cc57306080527ff0c57e16840df040f15088dc2f81fe391c3923bec73e23a9662efc9c229c6a009081549060ff8260401c166100bd57506001600160401b036002600160401b031982821601610078575b604051612ab890816100d2823960805181818161133001526114150152f35b6001600160401b031990911681179091556040519081527fc7f505b2f371ae2175ee4913f4499e1f2633a7b5936321eed1cdaeb6115181d290602090a1388080610059565b63f92ee8a960e01b8152600490fd5b600080fdfe608080604052600436101561001357600080fd5b60003560e01c90816301ffc9a714611b785750806306fdde0314611ace578063095ea7b314611aa857806318160ddd14611a7d57806323b872dd14611a45578063248a9ca314611a095780632f2ff15d146119bd578063313ce567146119a157806332cb6b0c1461197b5780633644e5151461195857806336568abe146119115780633f4ba83a1461187457806340c10f191461169a57806342966c681461164e5780634f1ef2861461139a57806352d1902d1461131d5780635c975abb146112ed5780636da66355146111fd57806370a08231146111b657806379cc67901461114e5780637ecebe00146110f557806384b0196e14610f9957806391d1485414610f3f57806395d89b4114610e5e578063a217fddf14610e42578063a9059cbb14610e11578063ad3cb1cc14610dc7578063c4d66de81461046d578063d505accf146102e2578063d5391393146102a7578063d547741f14610259578063dd62ed3e14610210578063e63ab1e9146101d55763f72c0d8b1461019557600080fd5b346101d05760003660031901126101d05760206040517f189ab7a9244df0848122154315af71fe140f3db0fe014031783b0946b8c9d2e38152f35b600080fd5b346101d05760003660031901126101d05760206040517f65d7a28e3265b37a6474929f336521b332c1681b933f6cb9f3376673440d862a8152f35b346101d05760403660031901126101d057610229611c0b565b61023a610234611c21565b91611e38565b9060018060a01b03166000526020526020604060002054604051908152f35b346101d05760403660031901126101d0576102a5600435610278611c21565b90806000526000805160206129e38339815191526020526102a06001604060002001546120ac565b6123e6565b005b346101d05760003660031901126101d05760206040517f9f2df0fed2c77648de5860a4cc508cd0818c85b8b8a1ab4ceeef8d981c8956a68152f35b346101d05760e03660031901126101d0576102fb611c0b565b610303611c21565b60443590606435926084359360ff851685036101d0578042116104555760018060a01b039081831695866000527f5ab42ced628888259c08ac98db1eb0cf702fc1501344311d8b100cd1bfe4bb006020526040600020908154916001830190556040519260208401927f6e71edae12b1b97f4d1f60370fef10105fa2faae0126114a169c64845d6126c98452896040860152858816606086015288608086015260a085015260c084015260c0835260e08301918383106001600160401b0384111761043f5761040e93610405936040525190206103de6124f9565b906040519161190160f01b83526002830152602282015260c43591604260a435922061267b565b9092919261270b565b1684810361042157506102a59350612469565b60449085604051916325c0072360e11b835260048301526024820152fd5b634e487b7160e01b600052604160045260246000fd5b6024906040519063313c898160e11b82526004820152fd5b346101d05760203660031901126101d057610486611c0b565b600080516020612a43833981519152546001600160401b03811680159081610db7575b6001149081610dad575b159081610da4575b50610d925760016001600160401b0319821617600080516020612a438339815191525560ff8160401c1615610d65575b6001600160a01b03821615610d2057610502611e71565b916040519161051083611c37565b60038352622324a760e91b602084015261052861264c565b61053061264c565b83516001600160401b03811161043f576105586000805160206128e383398151915254611c8e565b601f8111610caa575b506020601f8211600114610c1b578192939495600092610c10575b50508160011b916000199060031b1c1916176000805160206128e3833981519152555b82516001600160401b03811161043f576105c760008051602061294383398151915254611c8e565b601f8111610b9a575b506020601f8211600114610b0c5781929394600092610b01575b50508160011b916000199060031b1c191617600080516020612943833981519152555b61061561264c565b61061d61264c565b61062561264c565b61062d611e71565b9161063661264c565b6040519161064383611c37565b60018352603160f81b602084015261065961264c565b83516001600160401b03811161043f5761068160008051602061292383398151915254611c8e565b601f8111610a8b575b506020601f82116001146109fc5781929394956000926109f1575b50508160011b916000199060031b1c191617600080516020612923833981519152555b82516001600160401b03811161043f576106f060008051602061298383398151915254611c8e565b601f8111610977575b506020601f82116001146108eb57819293946000926108e0575b50508160011b916000199060031b1c191617600080516020612983833981519152555b60007fa16a46d94261c7517cc8ff89f61c0ce93598e3c849801011dee649a6a557d1005560007fa16a46d94261c7517cc8ff89f61c0ce93598e3c849801011dee649a6a557d1015561078661264c565b61078f826120df565b506107998261216d565b506107a38261221d565b506107ad826122c7565b506107b6612621565b6000805160206129638339815191529182546a52b7d2dcc80cd2e4000000908181018091116108ca579093556001600160a01b0381166000818152600080516020612903833981519152602090815260408083208054880190555186815260ff969392916000805160206129c383398151915291a36040519081526001600160a01b03919091169081907f969cd201f68f120baff2bf3c59bc3b534434e08b69a71a14ab85cb79cd3b63e490602090a360401c161561087157005b68ff000000000000000019600080516020612a438339815191525416600080516020612a43833981519152557fc7f505b2f371ae2175ee4913f4499e1f2633a7b5936321eed1cdaeb6115181d2602060405160018152a1005b634e487b7160e01b600052601160045260246000fd5b015190508480610713565b601f19821690600080516020612983833981519152600052600080516020612a638339815191529160005b81811061095f57509583600195969710610946575b505050811b0160008051602061298383398151915255610736565b015160001960f88460031b161c1916905584808061092b565b9192602060018192868b015181550194019201610916565b600080516020612983833981519152600052601f820160051c600080516020612a638339815191520190602083106109db575b601f0160051c600080516020612a6383398151915201905b8181106109cf57506106f9565b600081556001016109c2565b600080516020612a6383398151915291506109aa565b0151905085806106a5565b6000805160206129238339815191526000526000805160206129a38339815191529060005b601f1984168110610a73575060019394959683601f19811610610a5a575b505050811b01600080516020612923833981519152556106c8565b015160001960f88460031b161c19169055858080610a3f565b9091602060018192858b015181550193019101610a21565b600080516020612923833981519152600052601f820160051c6000805160206129a38339815191520160208310610aec575b601f820160051c6000805160206129a3833981519152018110610ae0575061068a565b60008155600101610abd565b506000805160206129a3833981519152610abd565b0151905084806105ea565b600080516020612943833981519152600052600080516020612a238339815191529060005b601f1984168110610b825750600193949583601f19811610610b69575b505050811b016000805160206129438339815191525561060d565b015160001960f88460031b161c19169055848080610b4e565b9091602060018192858a015181550193019101610b31565b600080516020612943833981519152600052601f820160051c600080516020612a238339815191520160208310610bfb575b601f820160051c600080516020612a23833981519152018110610bef57506105d0565b60008155600101610bcc565b50600080516020612a23833981519152610bcc565b01519050858061057c565b6000805160206128e38339815191526000526000805160206128c38339815191529060005b601f1984168110610c92575060019394959683601f19811610610c79575b505050811b016000805160206128e38339815191525561059f565b015160001960f88460031b161c19169055858080610c5e565b9091602060018192858b015181550193019101610c40565b6000805160206128e3833981519152600052601f820160051c6000805160206128c38339815191520160208310610d0b575b601f820160051c6000805160206128c3833981519152018110610cff5750610561565b60008155600101610cdc565b506000805160206128c3833981519152610cdc565b60405162461bcd60e51b815260206004820152601f60248201527f46494e546f6b656e3a2061646d696e206973207a65726f2061646472657373006044820152606490fd5b68ffffffffffffffffff1981166801000000000000000117600080516020612a43833981519152556104eb565b60405163f92ee8a960e01b8152600490fd5b905015836104bb565b303b1591506104b3565b604083901c60ff161591506104a9565b346101d05760003660031901126101d057610e0d604051610de781611c37565b60058152640352e302e360dc1b6020820152604051918291602083526020830190611bcb565b0390f35b346101d05760403660031901126101d057610e37610e2d611c0b565b6024359033611f6c565b602060405160018152f35b346101d05760003660031901126101d057602060405160008152f35b346101d05760003660031901126101d0576040516000805160206129438339815191528054826000610e8f83611c8e565b9283835260209460019186600182169182600014610f1d575050600114610ed3575b5050610ebf92500383611c52565b610e0d604051928284938452830190611bcb565b859250600052600080516020612a23833981519152906000915b858310610f05575050610ebf93508201018580610eb1565b80548389018501528794508693909201918101610eed565b9250935050610ebf94915060ff191682840152151560051b8201018580610eb1565b346101d05760403660031901126101d057610f58611c21565b6004356000526000805160206129e383398151915260205260406000209060018060a01b0316600052602052602060ff604060002054166040519015158152f35b346101d05760003660031901126101d0577fa16a46d94261c7517cc8ff89f61c0ce93598e3c849801011dee649a6a557d1005415806110cc575b1561108f57610fe0611cc8565b610fe8611d8e565b6040516020808201928284106001600160401b0385111761043f579160206110428594611034979660405260008452604051978897600f60f81b895260e0858a015260e0890190611bcb565b908782036040890152611bcb565b91466060870152306080870152600060a087015285830360c0870152519182815201929160005b82811061107857505050500390f35b835185528695509381019392810192600101611069565b60405162461bcd60e51b81526020600482015260156024820152741152540dcc4c8e88155b9a5b9a5d1a585b1a5e9959605a1b6044820152606490fd5b507fa16a46d94261c7517cc8ff89f61c0ce93598e3c849801011dee649a6a557d1015415610fd3565b346101d05760203660031901126101d0576001600160a01b03611116611c0b565b166000527f5ab42ced628888259c08ac98db1eb0cf702fc1501344311d8b100cd1bfe4bb006020526020604060002054604051908152f35b346101d05760403660031901126101d057611167611c0b565b7ffd38818f5291bf0bb3a2a48aadc06ba8757865d1dabd804585338aab3009dcb6602060243592611199843383611e96565b6111a3848261256e565b6040519384526001600160a01b031692a2005b346101d05760203660031901126101d0576001600160a01b036111d7611c0b565b166000526000805160206129038339815191526020526020604060002054604051908152f35b346101d05760203660031901126101d0576001600160401b036004358181116101d057366023820112156101d05780600401359182116101d05736602483830101116101d0577fc50068396f19981cb0435611d2c97dde7b6882fdc3185a9fb8080fa756b3974d9061126d612050565b611275612621565b600080516020612a03833981519152600160ff198254161790557f62e78cea01bee320cd4e420270b5ea74000d11b0c9f74754ebdbfc544b05a2586020604051338152a182602460405192602084528260208501520160408301376000604084830101526040813394601f80199101168101030190a2005b346101d05760003660031901126101d057602060ff600080516020612a0383398151915254166040519015158152f35b346101d05760003660031901126101d0577f00000000000000000000000000000000000000000000000000000000000000006001600160a01b031630036113885760206040517f360894a13ba1a3210667c828492db98dca3e2076cc3735a920a3ca505d382bbc8152f35b60405163703e46dd60e11b8152600490fd5b60403660031901126101d0576113ae611c0b565b60249081356001600160401b0381116101d057366023820112156101d05780600401356113da81611c73565b926113e86040519485611c52565b81845260209182850193368783830101116101d05781600092888693018737860101526001600160a01b037f00000000000000000000000000000000000000000000000000000000000000008116308114908115611620575b50611388577f189ab7a9244df0848122154315af71fe140f3db0fe014031783b0946b8c9d2e3806000526000805160206129e38339815191528452604060002033600052845260ff604060002054161561160357508116936040516352d1902d60e01b81528381600481895afa600091816115d4575b506114d457604051634c9c8ce360e01b8152600481018790528790fd5b8590877f360894a13ba1a3210667c828492db98dca3e2076cc3735a920a3ca505d382bbc918281036115bf5750843b156115a9575080546001600160a01b03191682179055604051907fbc7cd75a20ee27fd9adebab32041f755214dbc6bffa90cc0225b39da2e5c2d3b600080a281511561158e575060006102a59481925190845af4903d15611585573d61156881611c73565b906115766040519283611c52565b8152600081943d92013e61283f565b6060925061283f565b93505050503461159a57005b63b398979f60e01b8152600490fd5b604051634c9c8ce360e01b815260048101849052fd5b60405190632a87526960e21b82526004820152fd5b9091508481813d83116115fc575b6115ec8183611c52565b810103126101d0575190886114b7565b503d6115e2565b866044916040519163e2517d3f60e01b8352336004840152820152fd5b9050817f360894a13ba1a3210667c828492db98dca3e2076cc3735a920a3ca505d382bbc5416141587611441565b346101d05760203660031901126101d05760043561166c813361256e565b6040519081527ffd38818f5291bf0bb3a2a48aadc06ba8757865d1dabd804585338aab3009dcb660203392a2005b346101d05760403660031901126101d0576116b3611c0b565b3360009081527f549fe2656c81d2947b3b913f0a53b9ea86c71e049f3a1b8aa23c09a8a05cb8d4602090815260409091205460243592907f9f2df0fed2c77648de5860a4cc508cd0818c85b8b8a1ab4ceeef8d981c8956a69060ff161561185657506001600160a01b03169081156118125760008051602061296383398151915280546a52b7d2dcc80cd2e400000061174c8683611e2b565b116117cd5790611786857f969cd201f68f120baff2bf3c59bc3b534434e08b69a71a14ab85cb79cd3b63e49493611781612621565b611e2b565b905582600052600080516020612903833981519152815260406000208481540190558260006000805160206129c383398151915283604051888152a36040519384523393a3005b60405162461bcd60e51b815260048101849052601c60248201527f46494e546f6b656e3a2065786365656473206d617820737570706c79000000006044820152606490fd5b6064906040519062461bcd60e51b82526004820152601e60248201527f46494e546f6b656e3a206d696e7420746f207a65726f206164647265737300006044820152fd5b6044906040519063e2517d3f60e01b82523360048301526024820152fd5b346101d05760003660031901126101d05761188d612050565b600080516020612a03833981519152805460ff8116156118ff5760ff191690557f5db9ee0a495bf2e6ff9c91a7834c1ba4fdd244a5e8aa4e537bd38aeae4b073aa6020604051338152a1337f306ca22c455fe433ebbf0542bbf947ea6a725495f9e1043db2a47e3c57940385600080a2005b604051638dfc202b60e01b8152600490fd5b346101d05760403660031901126101d05761192a611c21565b336001600160a01b03821603611946576102a5906004356123e6565b60405163334bd91960e11b8152600490fd5b346101d05760003660031901126101d05760206119736124f9565b604051908152f35b346101d05760003660031901126101d05760206040516a52b7d2dcc80cd2e40000008152f35b346101d05760003660031901126101d057602060405160128152f35b346101d05760403660031901126101d0576102a56004356119dc611c21565b90806000526000805160206129e3833981519152602052611a046001604060002001546120ac565b612371565b346101d05760203660031901126101d0576004356000526000805160206129e38339815191526020526020600160406000200154604051908152f35b346101d05760603660031901126101d057610e37611a61611c0b565b611a69611c21565b60443591611a78833383611e96565b611f6c565b346101d05760003660031901126101d057602060008051602061296383398151915254604051908152f35b346101d05760403660031901126101d057610e37611ac4611c0b565b6024359033612469565b346101d05760003660031901126101d0576040516000805160206128e38339815191528054826000611aff83611c8e565b9283835260209460019186600182169182600014610f1d575050600114611b2e575050610ebf92500383611c52565b8592506000526000805160206128c3833981519152906000915b858310611b60575050610ebf93508201018580610eb1565b80548389018501528794508693909201918101611b48565b346101d05760203660031901126101d0576004359063ffffffff60e01b82168092036101d057602091637965db0b60e01b8114908115611bba575b5015158152f35b6301ffc9a760e01b14905083611bb3565b919082519283825260005b848110611bf7575050826000602080949584010152601f8019910116010190565b602081830181015184830182015201611bd6565b600435906001600160a01b03821682036101d057565b602435906001600160a01b03821682036101d057565b604081019081106001600160401b0382111761043f57604052565b90601f801991011681019081106001600160401b0382111761043f57604052565b6001600160401b03811161043f57601f01601f191660200190565b90600182811c92168015611cbe575b6020831014611ca857565b634e487b7160e01b600052602260045260246000fd5b91607f1691611c9d565b6040519060008260008051602061292383398151915291825492611ceb84611c8e565b80845293602091600191828116908115611d685750600114611d19575b505050611d1792500383611c52565b565b60009081526000805160206129a38339815191529590935091905b828410611d505750611d17945050508101602001388080611d08565b85548885018301529485019487945092810192611d34565b9250505060209250611d1794915060ff191682840152151560051b820101388080611d08565b6040519060008260008051602061298383398151915291825492611db184611c8e565b80845293602091600191828116908115611d685750600114611ddc57505050611d1792500383611c52565b6000908152600080516020612a638339815191529590935091905b828410611e135750611d17945050508101602001388080611d08565b85548885018301529485019487945092810192611df7565b919082018092116108ca57565b6001600160a01b031660009081527f52c63247e1f47db19d5ce0460030c497f067ca4cebf71ba98eeadabe20bace016020526040902090565b60405190611e7e82611c37565b60098252682324a7102a37b5b2b760b91b6020830152565b9190611ea183611e38565b9260018060a01b0390818316916000958387526020526040862054936000198510611ed0575b50505050505050565b858510611f3b5750811615611f22578115611f095790611ef36040949392611e38565b9085526020520391205538808080808080611ec7565b604051634a1406b160e11b815260048101869052602490fd5b60405163e602df0560e01b815260048101869052602490fd5b604051637dc7a0d960e11b81526001600160a01b039190911660048201526024810185905260448101869052606490fd5b916001600160a01b03808416928315612037571692831561201e57611f8f612621565b60009083825260008051602061290383398151915280602052604083205491848310611feb575082846000805160206129c3833981519152959360409388602097528652038282205586815220818154019055604051908152a3565b60405163391434e360e21b81526001600160a01b0391909116600482015260248101929092525060448101839052606490fd5b60405163ec442f0560e01b815260006004820152602490fd5b604051634b637e8f60e11b815260006004820152602490fd5b3360009081527f75442b0a96088b5456bc4ed01394c96a4feec0f883c9494257d76b96ab1c9b6b60205260409020547f65d7a28e3265b37a6474929f336521b332c1681b933f6cb9f3376673440d862a9060ff16156118565750565b806000526000805160206129e383398151915260205260406000203360005260205260ff60406000205416156118565750565b6001600160a01b031660008181527fb7db2dd08fcb62d0c9e08c51941cae53c267786a0b75803fb7960902fc8ef97d60205260408120549091906000805160206129e38339815191529060ff16612168578280526020526040822081835260205260408220600160ff1982541617905533916000805160206128a38339815191528180a4600190565b505090565b6001600160a01b031660008181527f549fe2656c81d2947b3b913f0a53b9ea86c71e049f3a1b8aa23c09a8a05cb8d460205260408120549091907f9f2df0fed2c77648de5860a4cc508cd0818c85b8b8a1ab4ceeef8d981c8956a6906000805160206129e38339815191529060ff16612217578184526020526040832082845260205260408320600160ff198254161790556000805160206128a3833981519152339380a4600190565b50505090565b6001600160a01b031660008181527f75442b0a96088b5456bc4ed01394c96a4feec0f883c9494257d76b96ab1c9b6b60205260408120549091907f65d7a28e3265b37a6474929f336521b332c1681b933f6cb9f3376673440d862a906000805160206129e38339815191529060ff16612217578184526020526040832082845260205260408320600160ff198254161790556000805160206128a3833981519152339380a4600190565b6001600160a01b031660008181527fab71e3f32666744d246edff3f96e4bdafee2e9867098cdd118a979a7464786a860205260408120549091907f189ab7a9244df0848122154315af71fe140f3db0fe014031783b0946b8c9d2e3906000805160206129e38339815191529060ff16612217578184526020526040832082845260205260408320600160ff198254161790556000805160206128a3833981519152339380a4600190565b906000918083526000805160206129e383398151915280602052604084209260018060a01b03169283855260205260ff60408520541615600014612217578184526020526040832082845260205260408320600160ff198254161790556000805160206128a3833981519152339380a4600190565b906000918083526000805160206129e383398151915280602052604084209260018060a01b03169283855260205260ff60408520541660001461221757818452602052604083208284526020526040832060ff1981541690557ff6391f5c32d9c69d2a47ea670b442974b53935d1edc7fd64eb21e047a839171b339380a4600190565b916001600160a01b038084169283156124e057169283156124c7577f8c5be1e5ebec7d5bd14f71427d1e84f3dd0314c0f7b2291e5b200ac8c7c3b925916124b1602092611e38565b85600052825280604060002055604051908152a3565b604051634a1406b160e11b815260006004820152602490fd5b60405163e602df0560e01b815260006004820152602490fd5b612501612790565b6125096127fa565b6040519060208201927f8b73c3c69bb8fe3d512ecc4cf759cc79239f7b179b0ffacaa9a75d522b39400f8452604083015260608201524660808201523060a082015260a0815260c081018181106001600160401b0382111761043f5760405251902090565b91906001600160a01b03831690811561203757612589612621565b8160005260008051602061290383398151915280602052604060002054948286106125f05750816000805160206129c383398151915292600095966020938688528452036040862055600080516020612963833981519152818154039055604051908152a3565b60405163391434e360e21b81526001600160a01b039190911660048201526024810186905260448101839052606490fd5b60ff600080516020612a03833981519152541661263a57565b60405163d93c066560e01b8152600490fd5b60ff600080516020612a438339815191525460401c161561266957565b604051631afcd79f60e31b8152600490fd5b91907f7fffffffffffffffffffffffffffffff5d576e7357a4501ddfe92f46681b20a084116126ff57926020929160ff608095604051948552168484015260408301526060820152600092839182805260015afa156126f35780516001600160a01b038116156126ea57918190565b50809160019190565b604051903d90823e3d90fd5b50505060009160039190565b600481101561277a578061271d575050565b600181036127375760405163f645eedf60e01b8152600490fd5b600281036127585760405163fce698f760e01b815260048101839052602490fd5b6003146127625750565b602490604051906335e2f38360e21b82526004820152fd5b634e487b7160e01b600052602160045260246000fd5b612798611cc8565b80519081156127a8576020012090565b50507fa16a46d94261c7517cc8ff89f61c0ce93598e3c849801011dee649a6a557d1005480156127d55790565b507fc5d2460186f7233c927e7db2dcc703c0e500b653ca82273b7bfad8045d85a47090565b612802611d8e565b8051908115612812576020012090565b50507fa16a46d94261c7517cc8ff89f61c0ce93598e3c849801011dee649a6a557d1015480156127d55790565b90612866575080511561285457602081519101fd5b60405163d6bda27560e01b8152600490fd5b81511580612899575b612877575090565b604051639996b31560e01b81526001600160a01b039091166004820152602490fd5b50803b1561286f56fe2f8788117e7eff1d82e926ec794901d17c78024a50270940304540a733656f0d2ae08a8e29253f69ac5d979a101956ab8f8d9d7ded63fa7a83b16fc47648eab052c63247e1f47db19d5ce0460030c497f067ca4cebf71ba98eeadabe20bace0352c63247e1f47db19d5ce0460030c497f067ca4cebf71ba98eeadabe20bace00a16a46d94261c7517cc8ff89f61c0ce93598e3c849801011dee649a6a557d10252c63247e1f47db19d5ce0460030c497f067ca4cebf71ba98eeadabe20bace0452c63247e1f47db19d5ce0460030c497f067ca4cebf71ba98eeadabe20bace02a16a46d94261c7517cc8ff89f61c0ce93598e3c849801011dee649a6a557d10342ad5d3e1f2e6e70edcf6d991b8a3023d3fca8047a131592f9edb9fd9b89d57dddf252ad1be2c89b69c2b068fc378daa952ba7f163c4a11628f55a4df523b3ef02dd7bc7dec4dceedda775e58dd541e08a116c6c53815c0bd028192f7b626800cd5ed15c6e187e77e9aee88184c21f4f2182ab5827cb3b7e07fbedcd63f0330046a2803e59a4de4e7a4c574b1243f25977ac4c77d5a1a4a609b5394cebb4a2aaf0c57e16840df040f15088dc2f81fe391c3923bec73e23a9662efc9c229c6a005f9ce34815f8e11431c7bb75a8e6886a91478f7ffc1dbb0a98dc240fddd76b75a2646970667358221220f10b34071d30b4881dad50a29ccb9e6346c609ddc00c58d232d23f8335150c6d64736f6c63430008180033",
  "linkReferences": {},
  "deployedLinkReferences": {}
}