{
  "_format": "hh-sol-artifact-1",
  "contractName": "MultiSigWallet",
  "sourceName": "contracts/MultiSigWallet.sol",
  "abi": [
    {
      "inputs": [],
      "stateMutability": "nonpayable",
      "type": "constructor"
    },
    {
      "inputs": [],
      "name": "AccessControlBadConfirmation",
      "type": "error"
    },
    {
      "inputs": [
        {
          "internalType": "address",
          "name": "account",
          "type": "address"
        },
        {
          "internalType": "bytes32",
          "name": "neededRole",
          "type": "bytes32"
        }
      ],
      "name": "AccessControlUnauthorizedAccount",
      "type": "error"
    },
    {
      "inputs": [
        {
          "internalType": "address",
          "name": "target",
          "type": "address"
        }
      ],
      "name": "AddressEmptyCode",
      "type": "error"
    },
    {
      "inputs": [
        {
          "internalType": "address",
          "name": "implementation",
          "type": "address"
        }
      ],
      "name": "ERC1967InvalidImplementation",
      "type": "error"
    },
    {
      "inputs": [],
      "name": "ERC1967NonPayable",
      "type": "error"
    },
    {
      "inputs": [],
      "name": "EnforcedPause",
      "type": "error"
    },
    {
      "inputs": [],
      "name": "ExpectedPause",
      "type": "error"
    },
    {
      "inputs": [],
      "name": "FailedCall",
      "type": "error"
    },
    {
      "inputs": [],
      "name": "InvalidInitialization",
      "type": "error"
    },
    {
      "inputs": [],
      "name": "NotInitializing",
      "type": "error"
    },
    {
      "inputs": [],
      "name": "ReentrancyGuardReentrantCall",
      "type": "error"
    },
    {
      "inputs": [],
      "name": "UUPSUnauthorizedCallContext",
      "type": "error"
    },
    {
      "inputs": [
        {
          "internalType": "bytes32",
          "name": "slot",
          "type": "bytes32"
        }
      ],
      "name": "UUPSUnsupportedProxiableUUID",
      "type": "error"
    },
    {
      "anonymous": false,
      "inputs": [
        {
          "indexed": true,
          "internalType": "address",
          "name": "owner",
          "type": "address"
        },
        {
          "indexed": true,
          "internalType": "uint256",
          "name": "txIndex",
          "type": "uint256"
        }
      ],
      "name": "ConfirmTransaction",
      "type": "event"
    },
    {
      "anonymous": false,
      "inputs": [
        {
          "indexed": true,
          "internalType": "address",
          "name": "sender",
          "type": "address"
        },
        {
          "indexed": false,
          "internalType": "uint256",
          "name": "amount",
          "type": "uint256"
        },
        {
          "indexed": false,
          "internalType": "uint256",
          "name": "balance",
          "type": "uint256"
        }
      ],
      "name": "Deposit",
      "type": "event"
    },
    {
      "anonymous": false,
      "inputs": [
        {
          "indexed": true,
          "internalType": "address",
          "name": "owner",
          "type": "address"
        },
        {
          "indexed": true,
          "internalType": "uint256",
          "name": "txIndex",
          "type": "uint256"
        }
      ],
      "name": "ExecuteTransaction",
      "type": "event"
    },
    {
      "anonymous": false,
      "inputs": [
        {
          "indexed": false,
          "internalType": "uint64",
          "name": "version",
          "type": "uint64"
        }
      ],
      "name": "Initialized",
      "type": "event"
    },
    {
      "anonymous": false,
      "inputs": [
        {
          "indexed": false,
          "internalType": "address",
          "name": "account",
          "type": "address"
        }
      ],
      "name": "Paused",
      "type": "event"
    },
    {
      "anonymous": false,
      "inputs": [
        {
          "indexed": true,
          "internalType": "address",
          "name": "owner",
          "type": "address"
        },
        {
          "indexed": true,
          "internalType": "uint256",
          "name": "txIndex",
          "type": "uint256"
        }
      ],
      "name": "RevokeConfirmation",
      "type": "event"
    },
    {
      "anonymous": false,
      "inputs": [
        {
          "indexed": true,
          "internalType": "bytes32",
          "name": "role",
          "type": "bytes32"
        },
        {
          "indexed": true,
          "internalType": "bytes32",
          "name": "previousAdminRole",
          "type": "bytes32"
        },
        {
          "indexed": true,
          "internalType": "bytes32",
          "name": "newAdminRole",
          "type": "bytes32"
        }
      ],
      "name": "RoleAdminChanged",
      "type": "event"
    },
    {
      "anonymous": false,
      "inputs": [
        {
          "indexed": true,
          "internalType": "bytes32",
          "name": "role",
          "type": "bytes32"
        },
        {
          "indexed": true,
          "internalType": "address",
          "name": "account",
          "type": "address"
        },
        {
          "indexed": true,
          "internalType": "address",
          "name": "sender",
          "type": "address"
        }
      ],
      "name": "RoleGranted",
      "type": "event"
    },
    {
      "anonymous": false,
      "inputs": [
        {
          "indexed": true,
          "internalType": "bytes32",
          "name": "role",
          "type": "bytes32"
        },
        {
          "indexed": true,
          "internalType": "address",
          "name": "account",
          "type": "address"
        },
        {
          "indexed": true,
          "internalType": "address",
          "name": "sender",
          "type": "address"
        }
      ],
      "name": "RoleRevoked",
      "type": "event"
    },
    {
      "anonymous": false,
      "inputs": [
        {
          "indexed": true,
          "internalType": "address",
          "name": "owner",
          "type": "address"
        },
        {
          "indexed": true,
          "internalType": "uint256",
          "name": "txIndex",
          "type": "uint256"
        },
        {
          "indexed": true,
          "internalType": "address",
          "name": "to",
          "type": "address"
        },
        {
          "indexed": false,
          "internalType": "uint256",
          "name": "value",
          "type": "uint256"
        },
        {
          "indexed": false,
          "internalType": "bytes",
          "name": "data",
          "type": "bytes"
        }
      ],
      "name": "SubmitTransaction",
      "type": "event"
    },
    {
      "anonymous": false,
      "inputs": [
        {
          "indexed": false,
          "internalType": "address",
          "name": "account",
          "type": "address"
        }
      ],
      "name": "Unpaused",
      "type": "event"
    },
    {
      "anonymous": false,
      "inputs": [
        {
          "indexed": true,
          "internalType": "address",
          "name": "implementation",
          "type": "address"
        }
      ],
      "name": "Upgraded",
      "type": "event"
    },
    {
      "inputs": [],
      "name": "DEFAULT_ADMIN_ROLE",
      "outputs": [
        {
          "internalType": "bytes32",
          "name": "",
          "type": "bytes32"
        }
      ],
      "stateMutability": "view",
      "type": "function"
    },
    {
      "inputs": [],
      "name": "UPGRADER_ROLE",
      "outputs": [
        {
          "internalType": "bytes32",
          "name": "",
          "type": "bytes32"
        }
      ],
      "stateMutability": "view",
      "type": "function"
    },
    {
      "inputs": [],
      "name": "UPGRADE_INTERFACE_VERSION",
      "outputs": [
        {
          "internalType": "string",
          "name": "",
          "type": "string"
        }
      ],
      "stateMutability": "view",
      "type": "function"
    },
    {
      "inputs": [
        {
          "internalType": "uint256",
          "name": "_txIndex",
          "type": "uint256"
        }
      ],
      "name": "confirmTransaction",
      "outputs": [],
      "stateMutability": "nonpayable",
      "type": "function"
    },
    {
      "inputs": [
        {
          "internalType": "uint256",
          "name": "_txIndex",
          "type": "uint256"
        }
      ],
      "name": "executeTransaction",
      "outputs": [],
      "stateMutability": "nonpayable",
      "type": "function"
    },
    {
      "inputs": [],
      "name": "getOwners",
      "outputs": [
        {
          "internalType": "address[]",
          "name": "",
          "type": "address[]"
        }
      ],
      "stateMutability": "view",
      "type": "function"
    },
    {
      "inputs": [
        {
          "internalType": "bytes32",
          "name": "role",
          "type": "bytes32"
        }
      ],
      "name": "getRoleAdmin",
      "outputs": [
        {
          "internalType": "bytes32",
          "name": "",
          "type": "bytes32"
        }
      ],
      "stateMutability": "view",
      "type": "function"
    },
    {
      "inputs": [
        {
          "internalType": "uint256",
          "name": "_txIndex",
          "type": "uint256"
        }
      ],
      "name": "getTransaction",
      "outputs": [
        {
          "internalType": "address",
          "name": "to",
          "type": "address"
        },
        {
          "internalType": "uint256",
          "name": "value",
          "type": "uint256"
        },
        {
          "internalType": "bytes",
          "name": "data",
          "type": "bytes"
        },
        {
          "internalType": "bool",
          "name": "executed",
          "type": "bool"
        },
        {
          "internalType": "uint256",
          "name": "numConfirmations",
          "type": "uint256"
        }
      ],
      "stateMutability": "view",
      "type": "function"
    },
    {
      "inputs": [],
      "name": "getTransactionCount",
      "outputs": [
        {
          "internalType": "uint256",
          "name": "",
          "type": "uint256"
        }
      ],
      "stateMutability": "view",
      "type": "function"
    },
    {
      "inputs": [
        {
          "internalType": "bytes32",
          "name": "role",
          "type": "bytes32"
        },
        {
          "internalType": "address",
          "name": "account",
          "type": "address"
        }
      ],
      "name": "grantRole",
      "outputs": [],
      "stateMutability": "nonpayable",
      "type": "function"
    },
    {
      "inputs": [
        {
          "internalType": "bytes32",
          "name": "role",
          "type": "bytes32"
        },
        {
          "internalType": "address",
          "name": "account",
          "type": "address"
        }
      ],
      "name": "hasRole",
      "outputs": [
        {
          "internalType": "bool",
          "name": "",
          "type": "bool"
        }
      ],
      "stateMutability": "view",
      "type": "function"
    },
    {
      "inputs": [
        {
          "internalType": "address[]",
          "name": "_owners",
          "type": "address[]"
        },
        {
          "internalType": "uint256",
          "name": "_numConfirmationsRequired",
          "type": "uint256"
        },
        {
          "internalType": "address",
          "name": "admin",
          "type": "address"
        }
      ],
      "name": "initialize",
      "outputs": [],
      "stateMutability": "nonpayable",
      "type": "function"
    },
    {
      "inputs": [
        {
          "internalType": "uint256",
          "name": "",
          "type": "uint256"
        },
        {
          "internalType": "address",
          "name": "",
          "type": "address"
        }
      ],
      "name": "isConfirmed",
      "outputs": [
        {
          "internalType": "bool",
          "name": "",
          "type": "bool"
        }
      ],
      "stateMutability": "view",
      "type": "function"
    },
    {
      "inputs": [
        {
          "internalType": "address",
          "name": "",
          "type": "address"
        }
      ],
      "name": "isOwner",
      "outputs": [
        {
          "internalType": "bool",
          "name": "",
          "type": "bool"
        }
      ],
      "stateMutability": "view",
      "type": "function"
    },
    {
      "inputs": [],
      "name": "numConfirmationsRequired",
      "outputs": [
        {
          "internalType": "uint256",
          "name": "",
          "type": "uint256"
        }
      ],
      "stateMutability": "view",
      "type": "function"
    },
    {
      "inputs": [
        {
          "internalType": "uint256",
          "name": "",
          "type": "uint256"
        }
      ],
      "name": "owners",
      "outputs": [
        {
          "internalType": "address",
          "name": "",
          "type": "address"
        }
      ],
      "stateMutability": "view",
      "type": "function"
    },
    {
      "inputs": [],
      "name": "paused",
      "outputs": [
        {
          "internalType": "bool",
          "name": "",
          "type": "bool"
        }
      ],
      "stateMutability": "view",
      "type": "function"
    },
    {
      "inputs": [],
      "name": "proxiableUUID",
      "outputs": [
        {
          "internalType": "bytes32",
          "name": "",
          "type": "bytes32"
        }
      ],
      "stateMutability": "view",
      "type": "function"
    },
    {
      "inputs": [
        {
          "internalType": "bytes32",
          "name": "role",
          "type": "bytes32"
        },
        {
          "internalType": "address",
          "name": "callerConfirmation",
          "type": "address"
        }
      ],
      "name": "renounceRole",
      "outputs": [],
      "stateMutability": "nonpayable",
      "type": "function"
    },
    {
      "inputs": [
        {
          "internalType": "uint256",
          "name": "_txIndex",
          "type": "uint256"
        }
      ],
      "name": "revokeConfirmation",
      "outputs": [],
      "stateMutability": "nonpayable",
      "type": "function"
    },
    {
      "inputs": [
        {
          "internalType": "bytes32",
          "name": "role",
          "type": "bytes32"
        },
        {
          "internalType": "address",
          "name": "account",
          "type": "address"
        }
      ],
      "name": "revokeRole",
      "outputs": [],
      "stateMutability": "nonpayable",
      "type": "function"
    },
    {
      "inputs": [
        {
          "internalType": "address",
          "name": "_to",
          "type": "address"
        },
        {
          "internalType": "uint256",
          "name": "_value",
          "type": "uint256"
        },
        {
          "internalType": "bytes",
          "name": "_data",
          "type": "bytes"
        }
      ],
      "name": "submitTransaction",
      "outputs": [],
      "stateMutability": "nonpayable",
      "type": "function"
    },
    {
      "inputs": [
        {
          "internalType": "bytes4",
          "name": "interfaceId",
          "type": "bytes4"
        }
      ],
      "name": "supportsInterface",
      "outputs": [
        {
          "internalType": "bool",
          "name": "",
          "type": "bool"
        }
      ],
      "stateMutability": "view",
      "type": "function"
    },
    {
      "inputs": [
        {
          "internalType": "uint256",
          "name": "",
          "type": "uint256"
        }
      ],
      "name": "transactions",
      "outputs": [
        {
          "internalType": "address",
          "name": "to",
          "type": "address"
        },
        {
          "internalType": "uint256",
          "name": "value",
          "type": "uint256"
        },
        {
          "internalType": "bytes",
          "name": "data",
          "type": "bytes"
        },
        {
          "internalType": "bool",
          "name": "executed",
          "type": "bool"
        },
        {
          "internalType": "uint256",
          "name": "numConfirmations",
          "type": "uint256"
        }
      ],
      "stateMutability": "view",
      "type": "function"
    },
    {
      "inputs": [
        {
          "internalType": "address",
          "name": "newImplementation",
          "type": "address"
        },
        {
          "internalType": "bytes",
          "name": "data",
          "type": "bytes"
        }
      ],
      "name": "upgradeToAndCall",
      "outputs": [],
      "stateMutability": "payable",
      "type": "function"
    },
    {
      "stateMutability": "payable",
      "type": "receive"
    }
  ],
  "bytecode": "0x60a080604052346100cc57306080527ff0c57e16840df040f15088dc2f81fe391c3923bec73e23a9662efc9c229c6a009081549060ff8260401c166100bd57506001600160401b036002600160401b031982821601610078575b604051611bee90816100d28239608051818181610e820152610f2c0152f35b6001600160401b031990911681179091556040519081527fc7f505b2f371ae2175ee4913f4499e1f2633a7b5936321eed1cdaeb6115181d290602090a1388080610059565b63f92ee8a960e01b8152600490fd5b600080fdfe6080806040526004361015610050575b50361561001b57600080fd5b476040519034825260208201527f90890809c654f11d6e72a28fa60149770a0d11ec6c92319d6ceb2bb0a4ea1a1560403392a2005b60003560e01c90816301ffc9a71461142957508063025e7c27146113e757806320ea8d86146112d5578063248a9ca3146112995780632e7700f01461127b5780632f2ff15d1461122f5780632f54bf6e146111f057806333ea3dc81461119b57806336568abe146111545780634f1ef28614610eec57806352d1902d14610e6f5780635c975abb14610e2d57806372483bf914610a3f57806380f59a65146109f257806391d14854146109985780639ace38c214610936578063a0e67e2b1461086f578063a217fddf14610853578063ad3cb1cc146107f6578063c01a8c84146106ca578063c642747414610419578063d0549b85146103fb578063d547741f146103ad578063ee22610b146101b05763f72c0d8b14610170573861000f565b346101ab5760003660031901126101ab5760206040517f189ab7a9244df0848122154315af71fe140f3db0fe014031783b0946b8c9d2e38152f35b600080fd5b346101ab576020806003193601126101ab5760043590336000526001918282526101e160ff60406000205416611720565b6101ee6004548210611758565b61020860ff60036101fe846115f0565b5001541615611798565b7f9b779b17422d0df92223018b32b4d1fa46e071723d6817e2486d003becc55f0091600283541461039b576002835561023f61180a565b610248826115f0565b50600481015460025411610362576003810160ff1990868282541617905560018060a01b0382541691600287820154910160405192600091805461028b81611641565b92818c1691821561034e575050600114610316575b5050916000939181859403925af16102b66117da565b50156102e65750337f5445f318f4f5fcfb66592e68e0cc5822aa15664039bd5f0ffde24c5a8142b1ac600080a355005b6064906040519062461bcd60e51b8252600482015260096024820152681d1e0819985a5b195960ba1b6044820152fd5b9091506000528460002085896000925b84841061033c57505050908301905081836102a0565b80548488015201910190898791610326565b1686525050801515028301905081836102a0565b60405162461bcd60e51b81526004810183905260116024820152700c6c2dcdcdee840caf0cac6eae8ca40e8f607b1b6044820152606490fd5b604051633ee5aeb560e01b8152600490fd5b346101ab5760403660031901126101ab576103f96004356103cc6114c6565b9080600052600080516020611b798339815191526020526103f4600160406000200154611847565b611a63565b005b346101ab5760003660031901126101ab576020600254604051908152f35b346101ab5760603660031901126101ab576104326114dc565b67ffffffffffffffff6044358181116101ab576104539036906004016115a9565b33600052600160205261046d60ff60406000205416611720565b61047561180a565b600454916040519060a082018281108282111761069e5760405260018060a01b0391828616815260208101916024358352604082018581526000606084015260006080840152600160401b87101561069e57600187016004556104d7876115f0565b9490946106b457835185546001600160a01b03191690871617855551600185015551805191821161069e5761050f6002850154611641565b601f8111610657575b50602090601f83116001146105c15792826004936080937fd5a05bf70715ad82a09a756320284a1b54c9ff74cd0f8cce6219e79b563fe59d9897966000926105b6575b50508160011b916000199060031b1c19161760028501555b600384016060820151151560ff801983541691161790550151910155604051946024358652604060208701521693806105b1339460408301906114f2565b0390a4005b015190508b8061055b565b90601f198316916002860160005260206000209260005b81811061063f5750936080937fd5a05bf70715ad82a09a756320284a1b54c9ff74cd0f8cce6219e79b563fe59d989796936001938360049810610626575b505050811b016002850155610573565b015160001960f88460031b161c191690558b8080610616565b929360206001819287860151815501950193016105d8565b600285016000526020600020601f840160051c810160208510610697575b601f830160051c8201811061068b575050610518565b60008155600101610675565b5080610675565b634e487b7160e01b600052604160045260246000fd5b634e487b7160e01b600052600060045260246000fd5b346101ab576020806003193601126101ab576004359033600052600181526106f960ff60406000205416611720565b6107066004548310611758565b61071660ff60036101fe856115f0565b8160005260038152604060002033600052815260ff604060002054166107bb5761073e61180a565b6004610749836115f0565b5001805490600182018092116107a55755816000526003815260406000209033600052526040600020600160ff19825416179055337f5cbe105e36805f7820e291f799d5794ff948af2a5f664e580382defb63390041600080a3005b634e487b7160e01b600052601160045260246000fd5b6064906040519062461bcd60e51b8252600482015260146024820152731d1e08185b1c9958591e4818dbdb999a5c9b595960621b6044820152fd5b346101ab5760003660031901126101ab57604051604081019080821067ffffffffffffffff83111761069e5761084f9160405260058152640352e302e360dc1b60208201526040519182916020835260208301906114f2565b0390f35b346101ab5760003660031901126101ab57602060405160008152f35b346101ab5760003660031901126101ab576040518060005480835260208093018091600080527f290decd9548b62a8d60345a988386fc84ba6bc95484008f6362f93160ef3e5639060005b868282106109195786866108d08288038361156b565b604051928392818401908285525180915260408401929160005b8281106108f957505050500390f35b83516001600160a01b0316855286955093810193928101926001016108ea565b83546001600160a01b0316855290930192600192830192016108ba565b346101ab5760203660031901126101ab576004356004548110156101ab5761095d906115f0565b5060018060a01b0381541661084f60018301549261097d6002820161167b565b90600460ff6003830154169101549160405195869586611532565b346101ab5760403660031901126101ab576109b16114c6565b600435600052600080516020611b7983398151915260205260406000209060018060a01b0316600052602052602060ff604060002054166040519015158152f35b346101ab5760403660031901126101ab57610a0b6114c6565b600435600052600360205260406000209060018060a01b0316600052602052602060ff604060002054166040519015158152f35b346101ab5760603660031901126101ab5767ffffffffffffffff6004358181116101ab57366023820112156101ab5780600401359082821161069e578160051b9060405192610a91602084018561156b565b835260246020840192820101903682116101ab57602401915b818310610e0d575050506044356001600160a01b03811690036101ab57600080516020611b998339815191525491821680159081610dfd575b6001149081610df3575b159081610dea575b50610dd857600167ffffffffffffffff19831617600080516020611b998339815191525560ff8260401c1615610dab575b610b2e611ae6565b610b36611ae6565b610b3e611ae6565b610b46611ae6565b60017f9b779b17422d0df92223018b32b4d1fa46e071723d6817e2486d003becc55f0055610b72611ae6565b805115610d7457602435151580610d67575b15610d115760005b8151811015610c8c57600581901b8201602001516001600160a01b0316908115610c575781600052600160205260ff60406000205416610c1f578160005260016020526040600020600160ff1982541617905560005491600160401b83101561069e57610c0083600180950160005561147c565b819291549060031b91821b91858060a01b03901b191617905501610b8c565b60405162461bcd60e51b815260206004820152601060248201526f6f776e6572206e6f7420756e6971756560801b6044820152606490fd5b60405162461bcd60e51b815260206004820152600d60248201526c34b73b30b634b21037bbb732b960991b6044820152606490fd5b60ff83602435600255610ca060443561187a565b50610cac60443561191a565b5060401c1615610cb857005b68ff000000000000000019600080516020611b998339815191525416600080516020611b99833981519152557fc7f505b2f371ae2175ee4913f4499e1f2633a7b5936321eed1cdaeb6115181d2602060405160018152a1005b60405162461bcd60e51b815260206004820152602860248201527f696e76616c6964206e756d626572206f6620726571756972656420636f6e6669604482015267726d6174696f6e7360c01b6064820152608490fd5b5080516024351115610b84565b60405162461bcd60e51b815260206004820152600f60248201526e1bdddb995c9cc81c995c5d5a5c9959608a1b6044820152606490fd5b68ffffffffffffffffff1982166801000000000000000117600080516020611b9983398151915255610b26565b60405163f92ee8a960e01b8152600490fd5b90501583610af5565b303b159150610aed565b604084901c60ff16159150610ae3565b82356001600160a01b03811681036101ab57815260209283019201610aaa565b346101ab5760003660031901126101ab57602060ff7fcd5ed15c6e187e77e9aee88184c21f4f2182ab5827cb3b7e07fbedcd63f0330054166040519015158152f35b346101ab5760003660031901126101ab577f00000000000000000000000000000000000000000000000000000000000000006001600160a01b03163003610eda5760206040517f360894a13ba1a3210667c828492db98dca3e2076cc3735a920a3ca505d382bbc8152f35b60405163703e46dd60e11b8152600490fd5b60403660031901126101ab57610f006114dc565b60243567ffffffffffffffff81116101ab57610f209036906004016115a9565b906001600160a01b03907f00000000000000000000000000000000000000000000000000000000000000008216308114908115611126575b50610eda573360009081527fab71e3f32666744d246edff3f96e4bdafee2e9867098cdd118a979a7464786a860209081526040909120549092907f189ab7a9244df0848122154315af71fe140f3db0fe014031783b0946b8c9d2e39060ff161561110857508116916040516352d1902d60e01b81528181600481875afa600091816110d9575b50610ffc57604051634c9c8ce360e01b815260048101859052602490fd5b9284937f360894a13ba1a3210667c828492db98dca3e2076cc3735a920a3ca505d382bbc908181036110c15750833b156110a85780546001600160a01b03191682179055604051907fbc7cd75a20ee27fd9adebab32041f755214dbc6bffa90cc0225b39da2e5c2d3b600080a283511561108e575060008381926103f995519101845af46110886117da565b91611b15565b925050503461109957005b63b398979f60e01b8152600490fd5b604051634c9c8ce360e01b815260048101839052602490fd5b60249060405190632a87526960e21b82526004820152fd5b9091508281813d8311611101575b6110f1818361156b565b810103126101ab57519086610fde565b503d6110e7565b6044906040519063e2517d3f60e01b82523360048301526024820152fd5b9050827f360894a13ba1a3210667c828492db98dca3e2076cc3735a920a3ca505d382bbc5416141584610f58565b346101ab5760403660031901126101ab5761116d6114c6565b336001600160a01b03821603611189576103f990600435611a63565b60405163334bd91960e11b8152600490fd5b346101ab5760203660031901126101ab576111b76004356115f0565b5060018060a01b0381541661084f60018301549260ff6003820154166111e460026004840154930161167b565b60405195869586611532565b346101ab5760203660031901126101ab576001600160a01b036112116114dc565b166000526001602052602060ff604060002054166040519015158152f35b346101ab5760403660031901126101ab576103f960043561124e6114c6565b9080600052600080516020611b79833981519152602052611276600160406000200154611847565b6119dc565b346101ab5760003660031901126101ab576020600454604051908152f35b346101ab5760203660031901126101ab57600435600052600080516020611b798339815191526020526020600160406000200154604051908152f35b346101ab576020806003193601126101ab5760043590336000526001815261130460ff60406000205416611720565b6113116004548310611758565b61132160ff60036101fe856115f0565b61132961180a565b611332826115f0565b508260005260038252604060002033600052825260ff60406000205416156113af5760040180546000198101919082116107a5575581600052600381526040600020903360005252604060002060ff198154169055337ff0dca620e2e81f7841d07bcc105e1704fb01475b278a9d4c236e1c62945edd55600080a3005b60405162461bcd60e51b815260048101839052601060248201526f1d1e081b9bdd0818dbdb999a5c9b595960821b6044820152606490fd5b346101ab5760203660031901126101ab576004356000548110156101ab5761141060209161147c565b905460405160039290921b1c6001600160a01b03168152f35b346101ab5760203660031901126101ab576004359063ffffffff60e01b82168092036101ab57602091637965db0b60e01b811490811561146b575b5015158152f35b6301ffc9a760e01b14905083611464565b9060009182548110156114b2578280527f290decd9548b62a8d60345a988386fc84ba6bc95484008f6362f93160ef3e563019190565b634e487b7160e01b83526032600452602483fd5b602435906001600160a01b03821682036101ab57565b600435906001600160a01b03821682036101ab57565b919082519283825260005b84811061151e575050826000602080949584010152601f8019910116010190565b6020818301810151848301820152016114fd565b919260809361155f929796959760018060a01b03168452602084015260a0604084015260a08301906114f2565b94151560608201520152565b90601f8019910116810190811067ffffffffffffffff82111761069e57604052565b67ffffffffffffffff811161069e57601f01601f191660200190565b81601f820112156101ab578035906115c08261158d565b926115ce604051948561156b565b828452602083830101116101ab57816000926020809301838601378301015290565b60045481101561162b576005906004600052027f8a35acfbc15ff81a39ae7d344fd709f28e8600b4aa8c65c6b64bfe7fe36bd19b0190600090565b634e487b7160e01b600052603260045260246000fd5b90600182811c92168015611671575b602083101461165b57565b634e487b7160e01b600052602260045260246000fd5b91607f1691611650565b9060405191826000825461168e81611641565b908184526020946001916001811690816000146116fe57506001146116bf575b5050506116bd9250038361156b565b565b600090815285812095935091905b8183106116e65750506116bd93508201013880806116ae565b855488840185015294850194879450918301916116cd565b925050506116bd94925060ff191682840152151560051b8201013880806116ae565b1561172757565b60405162461bcd60e51b81526020600482015260096024820152683737ba1037bbb732b960b91b6044820152606490fd5b1561175f57565b60405162461bcd60e51b81526020600482015260116024820152701d1e08191bd95cc81b9bdd08195e1a5cdd607a1b6044820152606490fd5b1561179f57565b60405162461bcd60e51b81526020600482015260136024820152721d1e08185b1c9958591e48195e1958dd5d1959606a1b6044820152606490fd5b3d15611805573d906117eb8261158d565b916117f9604051938461156b565b82523d6000602084013e565b606090565b60ff7fcd5ed15c6e187e77e9aee88184c21f4f2182ab5827cb3b7e07fbedcd63f03300541661183557565b60405163d93c066560e01b8152600490fd5b80600052600080516020611b7983398151915260205260406000203360005260205260ff60406000205416156111085750565b6001600160a01b031660008181527fb7db2dd08fcb62d0c9e08c51941cae53c267786a0b75803fb7960902fc8ef97d6020526040812054909190600080516020611b798339815191529060ff16611915578280526020526040822081835260205260408220600160ff1982541617905533917f2f8788117e7eff1d82e926ec794901d17c78024a50270940304540a733656f0d8180a4600190565b505090565b6001600160a01b031660008181527fab71e3f32666744d246edff3f96e4bdafee2e9867098cdd118a979a7464786a860205260408120549091907f189ab7a9244df0848122154315af71fe140f3db0fe014031783b0946b8c9d2e390600080516020611b798339815191529060ff166119d6578184526020526040832082845260205260408320600160ff198254161790557f2f8788117e7eff1d82e926ec794901d17c78024a50270940304540a733656f0d339380a4600190565b50505090565b90600091808352600080516020611b7983398151915280602052604084209260018060a01b03169283855260205260ff604085205416156000146119d6578184526020526040832082845260205260408320600160ff198254161790557f2f8788117e7eff1d82e926ec794901d17c78024a50270940304540a733656f0d339380a4600190565b90600091808352600080516020611b7983398151915280602052604084209260018060a01b03169283855260205260ff6040852054166000146119d657818452602052604083208284526020526040832060ff1981541690557ff6391f5c32d9c69d2a47ea670b442974b53935d1edc7fd64eb21e047a839171b339380a4600190565b60ff600080516020611b998339815191525460401c1615611b0357565b604051631afcd79f60e31b8152600490fd5b90611b3c5750805115611b2a57602081519101fd5b60405163d6bda27560e01b8152600490fd5b81511580611b6f575b611b4d575090565b604051639996b31560e01b81526001600160a01b039091166004820152602490fd5b50803b15611b4556fe02dd7bc7dec4dceedda775e58dd541e08a116c6c53815c0bd028192f7b626800f0c57e16840df040f15088dc2f81fe391c3923bec73e23a9662efc9c229c6a00a2646970667358221220dbf05a2722bb46cd8ce20828f40735fdd16d10895b7db65c92252846b888096c64736f6c63430008180033",
  "linkReferences": {},
  "deployedLinkReferences": {}
}