{"contracts/TokenPaymaster.sol":{"TokenPaymaster":{"abi":[{"inputs":[{"internalType":"address","name":"_token","type":"address"},{"internalType":"address","name":"_entryPoint","type":"address"},{"internalType":"address","name":"_initialVerifier","type":"address"}],"stateMutability":"nonpayable","type":"constructor"},{"inputs":[],"name":"ECDSAInvalidSignature","type":"error"},{"inputs":[{"internalType":"uint256","name":"length","type":"uint256"}],"name":"ECDSAInvalidSignatureLength","type":"error"},{"inputs":[{"internalType":"bytes32","name":"s","type":"bytes32"}],"name":"ECDSAInvalidSignatureS","type":"error"},{"inputs":[{"internalType":"address","name":"owner","type":"address"}],"name":"OwnableInvalidOwner","type":"error"},{"inputs":[{"internalType":"address","name":"account","type":"address"}],"name":"OwnableUnauthorizedAccount","type":"error"},{"anonymous":false,"inputs":[{"indexed":false,"internalType":"uint256","name":"newRate","type":"uint256"}],"name":"ExchangeRateUpdated","type":"event"},{"anonymous":false,"inputs":[{"indexed":true,"internalType":"address","name":"previousOwner","type":"address"},{"indexed":true,"internalType":"address","name":"newOwner","type":"address"}],"name":"OwnershipTransferred","type":"event"},{"anonymous":false,"inputs":[{"indexed":true,"internalType":"address","name":"user","type":"address"},{"indexed":false,"internalType":"uint256","name":"tokenAmount","type":"uint256"},{"indexed":false,"internalType":"uint256","name":"gasUsed","type":"uint256"}],"name":"PaymasterCharged","type":"event"},{"anonymous":false,"inputs":[{"indexed":true,"internalType":"address","name":"user","type":"address"},{"indexed":false,"internalType":"uint256","name":"amount","type":"uint256"}],"name":"TokenDeposited","type":"event"},{"anonymous":false,"inputs":[{"indexed":true,"internalType":"address","name":"verifier","type":"address"}],"name":"VerifierAdded","type":"event"},{"anonymous":false,"inputs":[{"indexed":true,"internalType":"address","name":"verifier","type":"address"}],"name":"VerifierRemoved","type":"event"},{"inputs":[],"name":"acceptedToken","outputs":[{"internalType":"contract IERC20","name":"","type":"address"}],"stateMutability":"view","type":"function"},{"inputs":[{"internalType":"address","name":"_verifier","type":"address"}],"name":"addVerifier","outputs":[],"stateMutability":"nonpayable","type":"function"},{"inputs":[],"name":"entryPoint","outputs":[{"internalType":"address","name":"","type":"address"}],"stateMutability":"view","type":"function"},{"inputs":[],"name":"exchangeRate","outputs":[{"internalType":"uint256","name":"","type":"uint256"}],"stateMutability":"view","type":"function"},{"inputs":[],"name":"getBalance","outputs":[{"internalType":"uint256","name":"","type":"uint256"}],"stateMutability":"view","type":"function"},{"inputs":[],"name":"owner","outputs":[{"internalType":"address","name":"","type":"address"}],"stateMutability":"view","type":"function"},{"inputs":[{"internalType":"bytes","name":"context","type":"bytes"},{"internalType":"uint256","name":"actualGasCost","type":"uint256"}],"name":"postOp","outputs":[],"stateMutability":"nonpayable","type":"function"},{"inputs":[{"internalType":"address","name":"_verifier","type":"address"}],"name":"removeVerifier","outputs":[],"stateMutability":"nonpayable","type":"function"},{"inputs":[],"name":"renounceOwnership","outputs":[],"stateMutability":"nonpayable","type":"function"},{"inputs":[{"internalType":"uint256","name":"_newRate","type":"uint256"}],"name":"setExchangeRate","outputs":[],"stateMutability":"nonpayable","type":"function"},{"inputs":[{"internalType":"address","name":"newOwner","type":"address"}],"name":"transferOwnership","outputs":[],"stateMutability":"nonpayable","type":"function"},{"inputs":[{"internalType":"bytes32","name":"","type":"bytes32"}],"name":"usedNonces","outputs":[{"internalType":"bool","name":"","type":"bool"}],"stateMutability":"view","type":"function"},{"inputs":[{"internalType":"address","name":"account","type":"address"},{"internalType":"bytes32","name":"userOpHash","type":"bytes32"},{"internalType":"uint256","name":"maxCost","type":"uint256"},{"internalType":"bytes","name":"signature","type":"bytes"}],"name":"validatePaymasterUserOp","outputs":[{"internalType":"bytes","name":"context","type":"bytes"}],"stateMutability":"view","type":"function"},{"inputs":[{"internalType":"address","name":"","type":"address"}],"name":"verifiedSigners","outputs":[{"internalType":"bool","name":"","type":"bool"}],"stateMutability":"view","type":"function"},{"inputs":[{"internalType":"uint256","name":"amount","type":"uint256"}],"name":"withdrawTokens","outputs":[],"stateMutability":"nonpayable","type":"function"}],"evm":{"bytecode":{"linkReferences":{},"object":"60c0346101e957601f610f5538819003918201601f1916830191906001600160401b038311848410176101ee5781606092859260409586528339810103126101e95761004a82610204565b6100618261005a60208601610204565b9401610204565b9233156101d15760008054336001600160a01b031982168117835585519692946001600160a01b03939284929083167f8be0079c531659141344cd1fd0a4f28419497f9722a3daafe3b4186f6b6457e08880a3670de0b6b3a76400006001551695861561019f575081831615610166571690811561012f57839460805260a0528152600260205220600160ff1982541617905551610d3c908161021982396080518181816103fa015281816104c0015281816108f70152610a6c015260a05181818161028c01526108640152f35b835162461bcd60e51b815260206004820152601060248201526f24b73b30b634b2103b32b934b334b2b960811b6044820152606490fd5b845162461bcd60e51b8152602060048201526012602482015271125b9d985b1a5908115b9d1c9e541bda5b9d60721b6044820152606490fd5b62461bcd60e51b815260206004820152600d60248201526c24b73b30b634b2103a37b5b2b760991b6044820152606490fd5b8251631e4fbdf760e01b815260006004820152602490fd5b600080fd5b634e487b7160e01b600052604160045260246000fd5b51906001600160a01b03821682036101e95756fe6080604081815260048036101561001557600080fd5b600092833560e01c90816312065fe014610a4157508063190f3b0c146108205780632737240d14610635578063315a095d14610486578063324762b9146104485780633ba0b9a914610429578063451c3d80146103e5578063715018a6146103885780638da5cb5b146103605780639000b3d6146102bb578063b0d691fe14610277578063ca2dfd0a1461020d578063db068e0e1461017d578063f2fde38b146100f75763feb61724146100c857600080fd5b346100f35760203660031901126100f3578160209360ff923581526003855220541690519015158152f35b8280fd5b50346100f35760203660031901126100f357610111610b23565b9061011a610b89565b6001600160a01b0391821692831561016757505082546001600160a01b0319811683178455167f8be0079c531659141344cd1fd0a4f28419497f9722a3daafe3b4186f6b6457e08380a380f35b51631e4fbdf760e01b8152908101849052602490fd5b5090346100f35760203660031901126100f35781359161019b610b89565b82156101d35750816020917f388f446e9526fe5c9af20a5919b342370c8a7c0cb05245afe1e545658fa3cdba9360015551908152a180f35b6020606492519162461bcd60e51b8352820152601560248201527452617465206d75737420626520706f73697469766560581b6044820152fd5b50503461027357602036600319011261027357610228610b23565b610230610b89565b6001600160a01b03168083526002602052908220805460ff191690557f44a3cd4eb5cc5748f6169df057b1cb2ae4c383e87cd94663c430e095d4cba4248280a280f35b5080fd5b505034610273578160031936011261027357517f00000000000000000000000000000000000000000000000000000000000000006001600160a01b03168152602090f35b5090346100f35760203660031901126100f3576102d6610b23565b6102de610b89565b6001600160a01b031691821561032b575081835260026020528220805460ff191660011790557f6d05492139c5ea989514a5d2150c028041e5c087e2a39967f67dc7d2655adb818280a280f35b6020606492519162461bcd60e51b8352820152601060248201526f24b73b30b634b2103b32b934b334b2b960811b6044820152fd5b505034610273578160031936011261027357905490516001600160a01b039091168152602090f35b83346103e257806003193601126103e2576103a1610b89565b80546001600160a01b03198116825581906001600160a01b03167f8be0079c531659141344cd1fd0a4f28419497f9722a3daafe3b4186f6b6457e08280a380f35b80fd5b505034610273578160031936011261027357517f00000000000000000000000000000000000000000000000000000000000000006001600160a01b03168152602090f35b5050346102735781600319360112610273576020906001549051908152f35b5050346102735760203660031901126102735760209160ff9082906001600160a01b03610473610b23565b1681526002855220541690519015158152f35b5090346100f357602090816003193601126106315782356104a5610b89565b81516370a0823160e01b815230858201526001600160a01b037f00000000000000000000000000000000000000000000000000000000000000008116918581602481865afa9081156106275788916105f6575b5083116105bc578654845163a9059cbb60e01b815291166001600160a01b03168682019081526020810193909352918491839182908990829060400103925af19081156105b2578591610585575b5015610550578380f35b5162461bcd60e51b815291820152601160248201527015da5d1a191c985dd85b0819985a5b1959607a1b604482015260649150fd5b6105a59150833d85116105ab575b61059d8183610b39565b810190610b71565b38610546565b503d610593565b82513d87823e3d90fd5b835162461bcd60e51b81528087018690526014602482015273496e73756666696369656e742062616c616e636560601b6044820152606490fd5b90508581813d8311610620575b61060d8183610b39565b8101031261061c5751386104f8565b8780fd5b503d610603565b85513d8a823e3d90fd5b8380fd5b5091346103e25760803660031901126103e257610650610b23565b90602435916064359467ffffffffffffffff95868111610631576106779036908301610af0565b94907f19457468657265756d205369676e6564204d6573736167653a0a333200000000855281601c52603c852097861161080d57602097601f19968851926106c68b8a601f8501160185610b39565b818452368282011161061c5791878b8386946106ec96836106f599013784010152610bb5565b90929192610bf1565b6001600160a01b03168452600287528584205460ff16156107d65783526003865260ff858420541661079e575083516001600160a01b03909116858201908152604435602082015290929061075590849060400103828101855284610b39565b8351948592818452845191828186015281955b8387106107865750508394508582601f949501015201168101030190f35b86810182015189880189015295810195889550610768565b845162461bcd60e51b81529081018690526012602482015271139bdb98d948185b1c9958591e481d5cd95960721b6044820152606490fd5b855162461bcd60e51b81528083018890526011602482015270496e76616c6964207369676e617475726560781b6044820152606490fd5b634e487b7160e01b855260418352602485fd5b50829034610273578260031936011261027357803567ffffffffffffffff81116100f3576108519036908301610af0565b60249491908535906001600160a01b03907f000000000000000000000000000000000000000000000000000000000000000082163303610a0d5783859181010312610a0957823594818616809603610a05576020916001548085029085820414851517156109f357670de0b6b3a764000084910495013585116109be5782889160648b895194859384926323b872dd60e01b84528d8985015230908401528a60448401527f0000000000000000000000000000000000000000000000000000000000000000165af19081156109b4578891610997575b501561095f57507f7f758e9784ed173a74d7178b4e82cfcede1e9be603252080b7de88eb2dc7c78b949596508351928352820152a280f35b60158860649387519362461bcd60e51b855284015282015274151bdad95b881d1c985b9cd9995c8819985a5b1959605a1b6044820152fd5b6109ae9150833d85116105ab5761059d8183610b39565b89610927565b86513d8a823e3d90fd5b5060118860649387519362461bcd60e51b85528401528201527011d85cc818dbdcdd08195e18d959591959607a1b6044820152fd5b634e487b7160e01b8952601183528989fd5b8680fd5b8580fd5b845162461bcd60e51b8152602081880152600f818a01526e13db9b1e48115b9d1c9e541bda5b9d608a1b6044820152606490fd5b92919050346106315783600319360112610631576370a0823160e01b835230908301526020826024817f00000000000000000000000000000000000000000000000000000000000000006001600160a01b03165afa918215610ae6578392610aae575b6020838351908152f35b9091506020813d602011610ade575b81610aca60209383610b39565b810103126100f35760209250519038610aa4565b3d9150610abd565b81513d85823e3d90fd5b9181601f84011215610b1e5782359167ffffffffffffffff8311610b1e5760208381860195010111610b1e57565b600080fd5b600435906001600160a01b0382168203610b1e57565b90601f8019910116810190811067ffffffffffffffff821117610b5b57604052565b634e487b7160e01b600052604160045260246000fd5b90816020910312610b1e57518015158103610b1e5790565b6000546001600160a01b03163303610b9d57565b60405163118cdaa760e01b8152336004820152602490fd5b8151919060418303610be657610bdf92506020820151906060604084015193015160001a90610c76565b9192909190565b505060009160029190565b6004811015610c605780610c03575050565b60018103610c1d5760405163f645eedf60e01b8152600490fd5b60028103610c3e5760405163fce698f760e01b815260048101839052602490fd5b600314610c485750565b602490604051906335e2f38360e21b82526004820152fd5b634e487b7160e01b600052602160045260246000fd5b91907f7fffffffffffffffffffffffffffffff5d576e7357a4501ddfe92f46681b20a08411610cfa57926020929160ff608095604051948552168484015260408301526060820152600092839182805260015afa15610cee5780516001600160a01b03811615610ce557918190565b50809160019190565b604051903d90823e3d90fd5b5050506000916003919056fea26469706673582212209dc1118c8dfbfe264b5ec8e65bb5d2a5dfa0c59baa70c3a37ef2ec0631c6fc3a64736f6c63430008180033","opcodes":"PUSH1 0xC0 CALLVALUE PUSH2 0x1E9 JUMPI PUSH1 0x1F PUSH2 0xF55 CODESIZE DUP2 SWAP1 SUB SWAP2 DUP3 ADD PUSH1 0x1F NOT AND DUP4 ADD SWAP2 SWAP1 PUSH1 0x1 PUSH1 0x1 PUSH1 0x40 SHL SUB DUP4 GT DUP5 DUP5 LT OR PUSH2 0x1EE JUMPI DUP2 PUSH1 0x60 SWAP3 DUP6 SWAP3 PUSH1 0x40 SWAP6 DUP7 MSTORE DUP4 CODECOPY DUP2 ADD SUB SLT PUSH2 0x1E9 JUMPI PUSH2 0x4A DUP3 PUSH2 0x204 JUMP JUMPDEST PUSH2 0x61 DUP3 PUSH2 0x5A PUSH1 0x20 DUP7 ADD PUSH2 0x204 JUMP JUMPDEST SWAP5 ADD PUSH2 0x204 JUMP JUMPDEST SWAP3 CALLER ISZERO PUSH2 0x1D1 JUMPI PUSH1 0x0 DUP1 SLOAD CALLER PUSH1 0x1 PUSH1 0x1 PUSH1 0xA0 SHL SUB NOT DUP3 AND DUP2 OR DUP4 SSTORE DUP6 MLOAD SWAP7 SWAP3 SWAP5 PUSH1 0x1 PUSH1 0x1 PUSH1 0xA0 SHL SUB SWAP4 SWAP3 DUP5 SWAP3 SWAP1 DUP4 AND PUSH32 0x8BE0079C531659141344CD1FD0A4F28419497F9722A3DAAFE3B4186F6B6457E0 DUP9 DUP1 LOG3 PUSH8 0xDE0B6B3A7640000 PUSH1 0x1 SSTORE AND SWAP6 DUP7 ISZERO PUSH2 0x19F JUMPI POP DUP2 DUP4 AND ISZERO PUSH2 0x166 JUMPI AND SWAP1 DUP2 ISZERO PUSH2 0x12F JUMPI DUP4 SWAP5 PUSH1 0x80 MSTORE PUSH1 0xA0 MSTORE DUP2 MSTORE PUSH1 0x2 PUSH1 0x20 MSTORE KECCAK256 PUSH1 0x1 PUSH1 0xFF NOT DUP3 SLOAD AND OR SWAP1 SSTORE MLOAD PUSH2 0xD3C SWAP1 DUP2 PUSH2 0x219 DUP3 CODECOPY PUSH1 0x80 MLOAD DUP2 DUP2 DUP2 PUSH2 0x3FA ADD MSTORE DUP2 DUP2 PUSH2 0x4C0 ADD MSTORE DUP2 DUP2 PUSH2 0x8F7 ADD MSTORE PUSH2 0xA6C ADD MSTORE PUSH1 0xA0 MLOAD DUP2 DUP2 DUP2 PUSH2 0x28C ADD MSTORE PUSH2 0x864 ADD MSTORE RETURN JUMPDEST DUP4 MLOAD PUSH3 0x461BCD PUSH1 0xE5 SHL DUP2 MSTORE PUSH1 0x20 PUSH1 0x4 DUP3 ADD MSTORE PUSH1 0x10 PUSH1 0x24 DUP3 ADD MSTORE PUSH16 0x24B73B30B634B2103B32B934B334B2B9 PUSH1 0x81 SHL PUSH1 0x44 DUP3 ADD MSTORE PUSH1 0x64 SWAP1 REVERT JUMPDEST DUP5 MLOAD PUSH3 0x461BCD PUSH1 0xE5 SHL DUP2 MSTORE PUSH1 0x20 PUSH1 0x4 DUP3 ADD MSTORE PUSH1 0x12 PUSH1 0x24 DUP3 ADD MSTORE PUSH18 0x125B9D985B1A5908115B9D1C9E541BDA5B9D PUSH1 0x72 SHL PUSH1 0x44 DUP3 ADD MSTORE PUSH1 0x64 SWAP1 REVERT JUMPDEST PUSH3 0x461BCD PUSH1 0xE5 SHL DUP2 MSTORE PUSH1 0x20 PUSH1 0x4 DUP3 ADD MSTORE PUSH1 0xD PUSH1 0x24 DUP3 ADD MSTORE PUSH13 0x24B73B30B634B2103A37B5B2B7 PUSH1 0x99 SHL PUSH1 0x44 DUP3 ADD MSTORE PUSH1 0x64 SWAP1 REVERT JUMPDEST DUP3 MLOAD PUSH4 0x1E4FBDF7 PUSH1 0xE0 SHL DUP2 MSTORE PUSH1 0x0 PUSH1 0x4 DUP3 ADD MSTORE PUSH1 0x24 SWAP1 REVERT JUMPDEST PUSH1 0x0 DUP1 REVERT JUMPDEST PUSH4 0x4E487B71 PUSH1 0xE0 SHL PUSH1 0x0 MSTORE PUSH1 0x41 PUSH1 0x4 MSTORE PUSH1 0x24 PUSH1 0x0 REVERT JUMPDEST MLOAD SWAP1 PUSH1 0x1 PUSH1 0x1 PUSH1 0xA0 SHL SUB DUP3 AND DUP3 SUB PUSH2 0x1E9 JUMPI JUMP INVALID PUSH1 0x80 PUSH1 0x40 DUP2 DUP2 MSTORE PUSH1 0x4 DUP1 CALLDATASIZE LT ISZERO PUSH2 0x15 JUMPI PUSH1 0x0 DUP1 REVERT JUMPDEST PUSH1 0x0 SWAP3 DUP4 CALLDATALOAD PUSH1 0xE0 SHR SWAP1 DUP2 PUSH4 0x12065FE0 EQ PUSH2 0xA41 JUMPI POP DUP1 PUSH4 0x190F3B0C EQ PUSH2 0x820 JUMPI DUP1 PUSH4 0x2737240D EQ PUSH2 0x635 JUMPI DUP1 PUSH4 0x315A095D EQ PUSH2 0x486 JUMPI DUP1 PUSH4 0x324762B9 EQ PUSH2 0x448 JUMPI DUP1 PUSH4 0x3BA0B9A9 EQ PUSH2 0x429 JUMPI DUP1 PUSH4 0x451C3D80 EQ PUSH2 0x3E5 JUMPI DUP1 PUSH4 0x715018A6 EQ PUSH2 0x388 JUMPI DUP1 PUSH4 0x8DA5CB5B EQ PUSH2 0x360 JUMPI DUP1 PUSH4 0x9000B3D6 EQ PUSH2 0x2BB JUMPI DUP1 PUSH4 0xB0D691FE EQ PUSH2 0x277 JUMPI DUP1 PUSH4 0xCA2DFD0A EQ PUSH2 0x20D JUMPI DUP1 PUSH4 0xDB068E0E EQ PUSH2 0x17D JUMPI DUP1 PUSH4 0xF2FDE38B EQ PUSH2 0xF7 JUMPI PUSH4 0xFEB61724 EQ PUSH2 0xC8 JUMPI PUSH1 0x0 DUP1 REVERT JUMPDEST CALLVALUE PUSH2 0xF3 JUMPI PUSH1 0x20 CALLDATASIZE PUSH1 0x3 NOT ADD SLT PUSH2 0xF3 JUMPI DUP2 PUSH1 0x20 SWAP4 PUSH1 0xFF SWAP3 CALLDATALOAD DUP2 MSTORE PUSH1 0x3 DUP6 MSTORE KECCAK256 SLOAD AND SWAP1 MLOAD SWAP1 ISZERO ISZERO DUP2 MSTORE RETURN JUMPDEST DUP3 DUP1 REVERT JUMPDEST POP CALLVALUE PUSH2 0xF3 JUMPI PUSH1 0x20 CALLDATASIZE PUSH1 0x3 NOT ADD SLT PUSH2 0xF3 JUMPI PUSH2 0x111 PUSH2 0xB23 JUMP JUMPDEST SWAP1 PUSH2 0x11A PUSH2 0xB89 JUMP JUMPDEST PUSH1 0x1 PUSH1 0x1 PUSH1 0xA0 SHL SUB SWAP2 DUP3 AND SWAP3 DUP4 ISZERO PUSH2 0x167 JUMPI POP POP DUP3 SLOAD PUSH1 0x1 PUSH1 0x1 PUSH1 0xA0 SHL SUB NOT DUP2 AND DUP4 OR DUP5 SSTORE AND PUSH32 0x8BE0079C531659141344CD1FD0A4F28419497F9722A3DAAFE3B4186F6B6457E0 DUP4 DUP1 LOG3 DUP1 RETURN JUMPDEST MLOAD PUSH4 0x1E4FBDF7 PUSH1 0xE0 SHL DUP2 MSTORE SWAP1 DUP2 ADD DUP5 SWAP1 MSTORE PUSH1 0x24 SWAP1 REVERT JUMPDEST POP SWAP1 CALLVALUE PUSH2 0xF3 JUMPI PUSH1 0x20 CALLDATASIZE PUSH1 0x3 NOT ADD SLT PUSH2 0xF3 JUMPI DUP2 CALLDATALOAD SWAP2 PUSH2 0x19B PUSH2 0xB89 JUMP JUMPDEST DUP3 ISZERO PUSH2 0x1D3 JUMPI POP DUP2 PUSH1 0x20 SWAP2 PUSH32 0x388F446E9526FE5C9AF20A5919B342370C8A7C0CB05245AFE1E545658FA3CDBA SWAP4 PUSH1 0x1 SSTORE MLOAD SWAP1 DUP2 MSTORE LOG1 DUP1 RETURN JUMPDEST PUSH1 0x20 PUSH1 0x64 SWAP3 MLOAD SWAP2 PUSH3 0x461BCD PUSH1 0xE5 SHL DUP4 MSTORE DUP3 ADD MSTORE PUSH1 0x15 PUSH1 0x24 DUP3 ADD MSTORE PUSH21 0x52617465206D75737420626520706F736974697665 PUSH1 0x58 SHL PUSH1 0x44 DUP3 ADD MSTORE REVERT JUMPDEST POP POP CALLVALUE PUSH2 0x273 JUMPI PUSH1 0x20 CALLDATASIZE PUSH1 0x3 NOT ADD SLT PUSH2 0x273 JUMPI PUSH2 0x228 PUSH2 0xB23 JUMP JUMPDEST PUSH2 0x230 PUSH2 0xB89 JUMP JUMPDEST PUSH1 0x1 PUSH1 0x1 PUSH1 0xA0 SHL SUB AND DUP1 DUP4 MSTORE PUSH1 0x2 PUSH1 0x20 MSTORE SWAP1 DUP3 KECCAK256 DUP1 SLOAD PUSH1 0xFF NOT AND SWAP1 SSTORE PUSH32 0x44A3CD4EB5CC5748F6169DF057B1CB2AE4C383E87CD94663C430E095D4CBA424 DUP3 DUP1 LOG2 DUP1 RETURN JUMPDEST POP DUP1 REVERT JUMPDEST POP POP CALLVALUE PUSH2 0x273 JUMPI DUP2 PUSH1 0x3 NOT CALLDATASIZE ADD SLT PUSH2 0x273 JUMPI MLOAD PUSH32 0x0 PUSH1 0x1 PUSH1 0x1 PUSH1 0xA0 SHL SUB AND DUP2 MSTORE PUSH1 0x20 SWAP1 RETURN JUMPDEST POP SWAP1 CALLVALUE PUSH2 0xF3 JUMPI PUSH1 0x20 CALLDATASIZE PUSH1 0x3 NOT ADD SLT PUSH2 0xF3 JUMPI PUSH2 0x2D6 PUSH2 0xB23 JUMP JUMPDEST PUSH2 0x2DE PUSH2 0xB89 JUMP JUMPDEST PUSH1 0x1 PUSH1 0x1 PUSH1 0xA0 SHL SUB AND SWAP2 DUP3 ISZERO PUSH2 0x32B JUMPI POP DUP2 DUP4 MSTORE PUSH1 0x2 PUSH1 0x20 MSTORE DUP3 KECCAK256 DUP1 SLOAD PUSH1 0xFF NOT AND PUSH1 0x1 OR SWAP1 SSTORE PUSH32 0x6D05492139C5EA989514A5D2150C028041E5C087E2A39967F67DC7D2655ADB81 DUP3 DUP1 LOG2 DUP1 RETURN JUMPDEST PUSH1 0x20 PUSH1 0x64 SWAP3 MLOAD SWAP2 PUSH3 0x461BCD PUSH1 0xE5 SHL DUP4 MSTORE DUP3 ADD MSTORE PUSH1 0x10 PUSH1 0x24 DUP3 ADD MSTORE PUSH16 0x24B73B30B634B2103B32B934B334B2B9 PUSH1 0x81 SHL PUSH1 0x44 DUP3 ADD MSTORE REVERT JUMPDEST POP POP CALLVALUE PUSH2 0x273 JUMPI DUP2 PUSH1 0x3 NOT CALLDATASIZE ADD SLT PUSH2 0x273 JUMPI SWAP1 SLOAD SWAP1 MLOAD PUSH1 0x1 PUSH1 0x1 PUSH1 0xA0 SHL SUB SWAP1 SWAP2 AND DUP2 MSTORE PUSH1 0x20 SWAP1 RETURN JUMPDEST DUP4 CALLVALUE PUSH2 0x3E2 JUMPI DUP1 PUSH1 0x3 NOT CALLDATASIZE ADD SLT PUSH2 0x3E2 JUMPI PUSH2 0x3A1 PUSH2 0xB89 JUMP JUMPDEST DUP1 SLOAD PUSH1 0x1 PUSH1 0x1 PUSH1 0xA0 SHL SUB NOT DUP2 AND DUP3 SSTORE DUP2 SWAP1 PUSH1 0x1 PUSH1 0x1 PUSH1 0xA0 SHL SUB AND PUSH32 0x8BE0079C531659141344CD1FD0A4F28419497F9722A3DAAFE3B4186F6B6457E0 DUP3 DUP1 LOG3 DUP1 RETURN JUMPDEST DUP1 REVERT JUMPDEST POP POP CALLVALUE PUSH2 0x273 JUMPI DUP2 PUSH1 0x3 NOT CALLDATASIZE ADD SLT PUSH2 0x273 JUMPI MLOAD PUSH32 0x0 PUSH1 0x1 PUSH1 0x1 PUSH1 0xA0 SHL SUB AND DUP2 MSTORE PUSH1 0x20 SWAP1 RETURN JUMPDEST POP POP CALLVALUE PUSH2 0x273 JUMPI DUP2 PUSH1 0x3 NOT CALLDATASIZE ADD SLT PUSH2 0x273 JUMPI PUSH1 0x20 SWAP1 PUSH1 0x1 SLOAD SWAP1 MLOAD SWAP1 DUP2 MSTORE RETURN JUMPDEST POP POP CALLVALUE PUSH2 0x273 JUMPI PUSH1 0x20 CALLDATASIZE PUSH1 0x3 NOT ADD SLT PUSH2 0x273 JUMPI PUSH1 0x20 SWAP2 PUSH1 0xFF SWAP1 DUP3 SWAP1 PUSH1 0x1 PUSH1 0x1 PUSH1 0xA0 SHL SUB PUSH2 0x473 PUSH2 0xB23 JUMP JUMPDEST AND DUP2 MSTORE PUSH1 0x2 DUP6 MSTORE KECCAK256 SLOAD AND SWAP1 MLOAD SWAP1 ISZERO ISZERO DUP2 MSTORE RETURN JUMPDEST POP SWAP1 CALLVALUE PUSH2 0xF3 JUMPI PUSH1 0x20 SWAP1 DUP2 PUSH1 0x3 NOT CALLDATASIZE ADD SLT PUSH2 0x631 JUMPI DUP3 CALLDATALOAD PUSH2 0x4A5 PUSH2 0xB89 JUMP JUMPDEST DUP2 MLOAD PUSH4 0x70A08231 PUSH1 0xE0 SHL DUP2 MSTORE ADDRESS DUP6 DUP3 ADD MSTORE PUSH1 0x1 PUSH1 0x1 PUSH1 0xA0 SHL SUB PUSH32 0x0 DUP2 AND SWAP2 DUP6 DUP2 PUSH1 0x24 DUP2 DUP7 GAS STATICCALL SWAP1 DUP2 ISZERO PUSH2 0x627 JUMPI DUP9 SWAP2 PUSH2 0x5F6 JUMPI JUMPDEST POP DUP4 GT PUSH2 0x5BC JUMPI DUP7 SLOAD DUP5 MLOAD PUSH4 0xA9059CBB PUSH1 0xE0 SHL DUP2 MSTORE SWAP2 AND PUSH1 0x1 PUSH1 0x1 PUSH1 0xA0 SHL SUB AND DUP7 DUP3 ADD SWAP1 DUP2 MSTORE PUSH1 0x20 DUP2 ADD SWAP4 SWAP1 SWAP4 MSTORE SWAP2 DUP5 SWAP2 DUP4 SWAP2 DUP3 SWAP1 DUP10 SWAP1 DUP3 SWAP1 PUSH1 0x40 ADD SUB SWAP3 GAS CALL SWAP1 DUP2 ISZERO PUSH2 0x5B2 JUMPI DUP6 SWAP2 PUSH2 0x585 JUMPI JUMPDEST POP ISZERO PUSH2 0x550 JUMPI DUP4 DUP1 RETURN JUMPDEST MLOAD PUSH3 0x461BCD PUSH1 0xE5 SHL DUP2 MSTORE SWAP2 DUP3 ADD MSTORE PUSH1 0x11 PUSH1 0x24 DUP3 ADD MSTORE PUSH17 0x15DA5D1A191C985DD85B0819985A5B1959 PUSH1 0x7A SHL PUSH1 0x44 DUP3 ADD MSTORE PUSH1 0x64 SWAP2 POP REVERT JUMPDEST PUSH2 0x5A5 SWAP2 POP DUP4 RETURNDATASIZE DUP6 GT PUSH2 0x5AB JUMPI JUMPDEST PUSH2 0x59D DUP2 DUP4 PUSH2 0xB39 JUMP JUMPDEST DUP2 ADD SWAP1 PUSH2 0xB71 JUMP JUMPDEST CODESIZE PUSH2 0x546 JUMP JUMPDEST POP RETURNDATASIZE PUSH2 0x593 JUMP JUMPDEST DUP3 MLOAD RETURNDATASIZE DUP8 DUP3 RETURNDATACOPY RETURNDATASIZE SWAP1 REVERT JUMPDEST DUP4 MLOAD PUSH3 0x461BCD PUSH1 0xE5 SHL DUP2 MSTORE DUP1 DUP8 ADD DUP7 SWAP1 MSTORE PUSH1 0x14 PUSH1 0x24 DUP3 ADD MSTORE PUSH20 0x496E73756666696369656E742062616C616E6365 PUSH1 0x60 SHL PUSH1 0x44 DUP3 ADD MSTORE PUSH1 0x64 SWAP1 REVERT JUMPDEST SWAP1 POP DUP6 DUP2 DUP2 RETURNDATASIZE DUP4 GT PUSH2 0x620 JUMPI JUMPDEST PUSH2 0x60D DUP2 DUP4 PUSH2 0xB39 JUMP JUMPDEST DUP2 ADD SUB SLT PUSH2 0x61C JUMPI MLOAD CODESIZE PUSH2 0x4F8 JUMP JUMPDEST DUP8 DUP1 REVERT JUMPDEST POP RETURNDATASIZE PUSH2 0x603 JUMP JUMPDEST DUP6 MLOAD RETURNDATASIZE DUP11 DUP3 RETURNDATACOPY RETURNDATASIZE SWAP1 REVERT JUMPDEST DUP4 DUP1 REVERT JUMPDEST POP SWAP2 CALLVALUE PUSH2 0x3E2 JUMPI PUSH1 0x80 CALLDATASIZE PUSH1 0x3 NOT ADD SLT PUSH2 0x3E2 JUMPI PUSH2 0x650 PUSH2 0xB23 JUMP JUMPDEST SWAP1 PUSH1 0x24 CALLDATALOAD SWAP2 PUSH1 0x64 CALLDATALOAD SWAP5 PUSH8 0xFFFFFFFFFFFFFFFF SWAP6 DUP7 DUP2 GT PUSH2 0x631 JUMPI PUSH2 0x677 SWAP1 CALLDATASIZE SWAP1 DUP4 ADD PUSH2 0xAF0 JUMP JUMPDEST SWAP5 SWAP1 PUSH32 0x19457468657265756D205369676E6564204D6573736167653A0A333200000000 DUP6 MSTORE DUP2 PUSH1 0x1C MSTORE PUSH1 0x3C DUP6 KECCAK256 SWAP8 DUP7 GT PUSH2 0x80D JUMPI PUSH1 0x20 SWAP8 PUSH1 0x1F NOT SWAP7 DUP9 MLOAD SWAP3 PUSH2 0x6C6 DUP12 DUP11 PUSH1 0x1F DUP6 ADD AND ADD DUP6 PUSH2 0xB39 JUMP JUMPDEST DUP2 DUP5 MSTORE CALLDATASIZE DUP3 DUP3 ADD GT PUSH2 0x61C JUMPI SWAP2 DUP8 DUP12 DUP4 DUP7 SWAP5 PUSH2 0x6EC SWAP7 DUP4 PUSH2 0x6F5 SWAP10 ADD CALLDATACOPY DUP5 ADD ADD MSTORE PUSH2 0xBB5 JUMP JUMPDEST SWAP1 SWAP3 SWAP2 SWAP3 PUSH2 0xBF1 JUMP JUMPDEST PUSH1 0x1 PUSH1 0x1 PUSH1 0xA0 SHL SUB AND DUP5 MSTORE PUSH1 0x2 DUP8 MSTORE DUP6 DUP5 KECCAK256 SLOAD PUSH1 0xFF AND ISZERO PUSH2 0x7D6 JUMPI DUP4 MSTORE PUSH1 0x3 DUP7 MSTORE PUSH1 0xFF DUP6 DUP5 KECCAK256 SLOAD AND PUSH2 0x79E JUMPI POP DUP4 MLOAD PUSH1 0x1 PUSH1 0x1 PUSH1 0xA0 SHL SUB SWAP1 SWAP2 AND DUP6 DUP3 ADD SWAP1 DUP2 MSTORE PUSH1 0x44 CALLDATALOAD PUSH1 0x20 DUP3 ADD MSTORE SWAP1 SWAP3 SWAP1 PUSH2 0x755 SWAP1 DUP5 SWAP1 PUSH1 0x40 ADD SUB DUP3 DUP2 ADD DUP6 MSTORE DUP5 PUSH2 0xB39 JUMP JUMPDEST DUP4 MLOAD SWAP5 DUP6 SWAP3 DUP2 DUP5 MSTORE DUP5 MLOAD SWAP2 DUP3 DUP2 DUP7 ADD MSTORE DUP2 SWAP6 JUMPDEST DUP4 DUP8 LT PUSH2 0x786 JUMPI POP POP DUP4 SWAP5 POP DUP6 DUP3 PUSH1 0x1F SWAP5 SWAP6 ADD ADD MSTORE ADD AND DUP2 ADD SUB ADD SWAP1 RETURN JUMPDEST DUP7 DUP2 ADD DUP3 ADD MLOAD DUP10 DUP9 ADD DUP10 ADD MSTORE SWAP6 DUP2 ADD SWAP6 DUP9 SWAP6 POP PUSH2 0x768 JUMP JUMPDEST DUP5 MLOAD PUSH3 0x461BCD PUSH1 0xE5 SHL DUP2 MSTORE SWAP1 DUP2 ADD DUP7 SWAP1 MSTORE PUSH1 0x12 PUSH1 0x24 DUP3 ADD MSTORE PUSH18 0x139BDB98D948185B1C9958591E481D5CD959 PUSH1 0x72 SHL PUSH1 0x44 DUP3 ADD MSTORE PUSH1 0x64 SWAP1 REVERT JUMPDEST DUP6 MLOAD PUSH3 0x461BCD PUSH1 0xE5 SHL DUP2 MSTORE DUP1 DUP4 ADD DUP9 SWAP1 MSTORE PUSH1 0x11 PUSH1 0x24 DUP3 ADD MSTORE PUSH17 0x496E76616C6964207369676E6174757265 PUSH1 0x78 SHL PUSH1 0x44 DUP3 ADD MSTORE PUSH1 0x64 SWAP1 REVERT JUMPDEST PUSH4 0x4E487B71 PUSH1 0xE0 SHL DUP6 MSTORE PUSH1 0x41 DUP4 MSTORE PUSH1 0x24 DUP6 REVERT JUMPDEST POP DUP3 SWAP1 CALLVALUE PUSH2 0x273 JUMPI DUP3 PUSH1 0x3 NOT CALLDATASIZE ADD SLT PUSH2 0x273 JUMPI DUP1 CALLDATALOAD PUSH8 0xFFFFFFFFFFFFFFFF DUP2 GT PUSH2 0xF3 JUMPI PUSH2 0x851 SWAP1 CALLDATASIZE SWAP1 DUP4 ADD PUSH2 0xAF0 JUMP JUMPDEST PUSH1 0x24 SWAP5 SWAP2 SWAP1 DUP6 CALLDATALOAD SWAP1 PUSH1 0x1 PUSH1 0x1 PUSH1 0xA0 SHL SUB SWAP1 PUSH32 0x0 DUP3 AND CALLER SUB PUSH2 0xA0D JUMPI DUP4 DUP6 SWAP2 DUP2 ADD SUB SLT PUSH2 0xA09 JUMPI DUP3 CALLDATALOAD SWAP5 DUP2 DUP7 AND DUP1 SWAP7 SUB PUSH2 0xA05 JUMPI PUSH1 0x20 SWAP2 PUSH1 0x1 SLOAD DUP1 DUP6 MUL SWAP1 DUP6 DUP3 DIV EQ DUP6 ISZERO OR ISZERO PUSH2 0x9F3 JUMPI PUSH8 0xDE0B6B3A7640000 DUP5 SWAP2 DIV SWAP6 ADD CALLDATALOAD DUP6 GT PUSH2 0x9BE JUMPI DUP3 DUP9 SWAP2 PUSH1 0x64 DUP12 DUP10 MLOAD SWAP5 DUP6 SWAP4 DUP5 SWAP3 PUSH4 0x23B872DD PUSH1 0xE0 SHL DUP5 MSTORE DUP14 DUP10 DUP6 ADD MSTORE ADDRESS SWAP1 DUP5 ADD MSTORE DUP11 PUSH1 0x44 DUP5 ADD MSTORE PUSH32 0x0 AND GAS CALL SWAP1 DUP2 ISZERO PUSH2 0x9B4 JUMPI DUP9 SWAP2 PUSH2 0x997 JUMPI JUMPDEST POP ISZERO PUSH2 0x95F JUMPI POP PUSH32 0x7F758E9784ED173A74D7178B4E82CFCEDE1E9BE603252080B7DE88EB2DC7C78B SWAP5 SWAP6 SWAP7 POP DUP4 MLOAD SWAP3 DUP4 MSTORE DUP3 ADD MSTORE LOG2 DUP1 RETURN JUMPDEST PUSH1 0x15 DUP9 PUSH1 0x64 SWAP4 DUP8 MLOAD SWAP4 PUSH3 0x461BCD PUSH1 0xE5 SHL DUP6 MSTORE DUP5 ADD MSTORE DUP3 ADD MSTORE PUSH21 0x151BDAD95B881D1C985B9CD9995C8819985A5B1959 PUSH1 0x5A SHL PUSH1 0x44 DUP3 ADD MSTORE REVERT JUMPDEST PUSH2 0x9AE SWAP2 POP DUP4 RETURNDATASIZE DUP6 GT PUSH2 0x5AB JUMPI PUSH2 0x59D DUP2 DUP4 PUSH2 0xB39 JUMP JUMPDEST DUP10 PUSH2 0x927 JUMP JUMPDEST DUP7 MLOAD RETURNDATASIZE DUP11 DUP3 RETURNDATACOPY RETURNDATASIZE SWAP1 REVERT JUMPDEST POP PUSH1 0x11 DUP9 PUSH1 0x64 SWAP4 DUP8 MLOAD SWAP4 PUSH3 0x461BCD PUSH1 0xE5 SHL DUP6 MSTORE DUP5 ADD MSTORE DUP3 ADD MSTORE PUSH17 0x11D85CC818DBDCDD08195E18D959591959 PUSH1 0x7A SHL PUSH1 0x44 DUP3 ADD MSTORE REVERT JUMPDEST PUSH4 0x4E487B71 PUSH1 0xE0 SHL DUP10 MSTORE PUSH1 0x11 DUP4 MSTORE DUP10 DUP10 REVERT JUMPDEST DUP7 DUP1 REVERT JUMPDEST DUP6 DUP1 REVERT JUMPDEST DUP5 MLOAD PUSH3 0x461BCD PUSH1 0xE5 SHL DUP2 MSTORE PUSH1 0x20 DUP2 DUP9 ADD MSTORE PUSH1 0xF DUP2 DUP11 ADD MSTORE PUSH15 0x13DB9B1E48115B9D1C9E541BDA5B9D PUSH1 0x8A SHL PUSH1 0x44 DUP3 ADD MSTORE PUSH1 0x64 SWAP1 REVERT JUMPDEST SWAP3 SWAP2 SWAP1 POP CALLVALUE PUSH2 0x631 JUMPI DUP4 PUSH1 0x3 NOT CALLDATASIZE ADD SLT PUSH2 0x631 JUMPI PUSH4 0x70A08231 PUSH1 0xE0 SHL DUP4 MSTORE ADDRESS SWAP1 DUP4 ADD MSTORE PUSH1 0x20 DUP3 PUSH1 0x24 DUP2 PUSH32 0x0 PUSH1 0x1 PUSH1 0x1 PUSH1 0xA0 SHL SUB AND GAS STATICCALL SWAP2 DUP3 ISZERO PUSH2 0xAE6 JUMPI DUP4 SWAP3 PUSH2 0xAAE JUMPI JUMPDEST PUSH1 0x20 DUP4 DUP4 MLOAD SWAP1 DUP2 MSTORE RETURN JUMPDEST SWAP1 SWAP2 POP PUSH1 0x20 DUP2 RETURNDATASIZE PUSH1 0x20 GT PUSH2 0xADE JUMPI JUMPDEST DUP2 PUSH2 0xACA PUSH1 0x20 SWAP4 DUP4 PUSH2 0xB39 JUMP JUMPDEST DUP2 ADD SUB SLT PUSH2 0xF3 JUMPI PUSH1 0x20 SWAP3 POP MLOAD SWAP1 CODESIZE PUSH2 0xAA4 JUMP JUMPDEST RETURNDATASIZE SWAP2 POP PUSH2 0xABD JUMP JUMPDEST DUP2 MLOAD RETURNDATASIZE DUP6 DUP3 RETURNDATACOPY RETURNDATASIZE SWAP1 REVERT JUMPDEST SWAP2 DUP2 PUSH1 0x1F DUP5 ADD SLT ISZERO PUSH2 0xB1E JUMPI DUP3 CALLDATALOAD SWAP2 PUSH8 0xFFFFFFFFFFFFFFFF DUP4 GT PUSH2 0xB1E JUMPI PUSH1 0x20 DUP4 DUP2 DUP7 ADD SWAP6 ADD ADD GT PUSH2 0xB1E JUMPI JUMP JUMPDEST PUSH1 0x0 DUP1 REVERT JUMPDEST PUSH1 0x4 CALLDATALOAD SWAP1 PUSH1 0x1 PUSH1 0x1 PUSH1 0xA0 SHL SUB DUP3 AND DUP3 SUB PUSH2 0xB1E JUMPI JUMP JUMPDEST SWAP1 PUSH1 0x1F DUP1 NOT SWAP2 ADD AND DUP2 ADD SWAP1 DUP2 LT PUSH8 0xFFFFFFFFFFFFFFFF DUP3 GT OR PUSH2 0xB5B JUMPI PUSH1 0x40 MSTORE JUMP JUMPDEST PUSH4 0x4E487B71 PUSH1 0xE0 SHL PUSH1 0x0 MSTORE PUSH1 0x41 PUSH1 0x4 MSTORE PUSH1 0x24 PUSH1 0x0 REVERT JUMPDEST SWAP1 DUP2 PUSH1 0x20 SWAP2 SUB SLT PUSH2 0xB1E JUMPI MLOAD DUP1 ISZERO ISZERO DUP2 SUB PUSH2 0xB1E JUMPI SWAP1 JUMP JUMPDEST PUSH1 0x0 SLOAD PUSH1 0x1 PUSH1 0x1 PUSH1 0xA0 SHL SUB AND CALLER SUB PUSH2 0xB9D JUMPI JUMP JUMPDEST PUSH1 0x40 MLOAD PUSH4 0x118CDAA7 PUSH1 0xE0 SHL DUP2 MSTORE CALLER PUSH1 0x4 DUP3 ADD MSTORE PUSH1 0x24 SWAP1 REVERT JUMPDEST DUP2 MLOAD SWAP2 SWAP1 PUSH1 0x41 DUP4 SUB PUSH2 0xBE6 JUMPI PUSH2 0xBDF SWAP3 POP PUSH1 0x20 DUP3 ADD MLOAD SWAP1 PUSH1 0x60 PUSH1 0x40 DUP5 ADD MLOAD SWAP4 ADD MLOAD PUSH1 0x0 BYTE SWAP1 PUSH2 0xC76 JUMP JUMPDEST SWAP2 SWAP3 SWAP1 SWAP2 SWAP1 JUMP JUMPDEST POP POP PUSH1 0x0 SWAP2 PUSH1 0x2 SWAP2 SWAP1 JUMP JUMPDEST PUSH1 0x4 DUP2 LT ISZERO PUSH2 0xC60 JUMPI DUP1 PUSH2 0xC03 JUMPI POP POP JUMP JUMPDEST PUSH1 0x1 DUP2 SUB PUSH2 0xC1D JUMPI PUSH1 0x40 MLOAD PUSH4 0xF645EEDF PUSH1 0xE0 SHL DUP2 MSTORE PUSH1 0x4 SWAP1 REVERT JUMPDEST PUSH1 0x2 DUP2 SUB PUSH2 0xC3E JUMPI PUSH1 0x40 MLOAD PUSH4 0xFCE698F7 PUSH1 0xE0 SHL DUP2 MSTORE PUSH1 0x4 DUP2 ADD DUP4 SWAP1 MSTORE PUSH1 0x24 SWAP1 REVERT JUMPDEST PUSH1 0x3 EQ PUSH2 0xC48 JUMPI POP JUMP JUMPDEST PUSH1 0x24 SWAP1 PUSH1 0x40 MLOAD SWAP1 PUSH4 0x35E2F383 PUSH1 0xE2 SHL DUP3 MSTORE PUSH1 0x4 DUP3 ADD MSTORE REVERT JUMPDEST PUSH4 0x4E487B71 PUSH1 0xE0 SHL PUSH1 0x0 MSTORE PUSH1 0x21 PUSH1 0x4 MSTORE PUSH1 0x24 PUSH1 0x0 REVERT JUMPDEST SWAP2 SWAP1 PUSH32 0x7FFFFFFFFFFFFFFFFFFFFFFFFFFFFFFF5D576E7357A4501DDFE92F46681B20A0 DUP5 GT PUSH2 0xCFA JUMPI SWAP3 PUSH1 0x20 SWAP3 SWAP2 PUSH1 0xFF PUSH1 0x80 SWAP6 PUSH1 0x40 MLOAD SWAP5 DUP6 MSTORE AND DUP5 DUP5 ADD MSTORE PUSH1 0x40 DUP4 ADD MSTORE PUSH1 0x60 DUP3 ADD MSTORE PUSH1 0x0 SWAP3 DUP4 SWAP2 DUP3 DUP1 MSTORE PUSH1 0x1 GAS STATICCALL ISZERO PUSH2 0xCEE JUMPI DUP1 MLOAD PUSH1 0x1 PUSH1 0x1 PUSH1 0xA0 SHL SUB DUP2 AND ISZERO PUSH2 0xCE5 JUMPI SWAP2 DUP2 SWAP1 JUMP JUMPDEST POP DUP1 SWAP2 PUSH1 0x1 SWAP2 SWAP1 JUMP JUMPDEST PUSH1 0x40 MLOAD SWAP1 RETURNDATASIZE SWAP1 DUP3 RETURNDATACOPY RETURNDATASIZE SWAP1 REVERT JUMPDEST POP POP POP PUSH1 0x0 SWAP2 PUSH1 0x3 SWAP2 SWAP1 JUMP INVALID LOG2 PUSH5 0x6970667358 0x22 SLT KECCAK256 SWAP14 0xC1 GT DUP13 DUP14 0xFB INVALID 0x26 0x4B MCOPY 0xC8 0xE6 JUMPDEST 0xB5 0xD2 0xA5 0xDF LOG0 0xC5 SWAP12 0xAA PUSH17 0xC3A37EF2EC0631C6FC3A64736F6C634300 ADDMOD XOR STOP CALLER "},"methodIdentifiers":{"acceptedToken()":"451c3d80","addVerifier(address)":"9000b3d6","entryPoint()":"b0d691fe","exchangeRate()":"3ba0b9a9","getBalance()":"12065fe0","owner()":"8da5cb5b","postOp(bytes,uint256)":"190f3b0c","removeVerifier(address)":"ca2dfd0a","renounceOwnership()":"715018a6","setExchangeRate(uint256)":"db068e0e","transferOwnership(address)":"f2fde38b","usedNonces(bytes32)":"feb61724","validatePaymasterUserOp(address,bytes32,uint256,bytes)":"2737240d","verifiedSigners(address)":"324762b9","withdrawTokens(uint256)":"315a095d"}},"storageLayout":{"storage":[{"astId":8,"contract":"contracts/TokenPaymaster.sol:TokenPaymaster","label":"_owner","offset":0,"slot":"0","type":"t_address"},{"astId":6251,"contract":"contracts/TokenPaymaster.sol:TokenPaymaster","label":"exchangeRate","offset":0,"slot":"1","type":"t_uint256"},{"astId":6255,"contract":"contracts/TokenPaymaster.sol:TokenPaymaster","label":"verifiedSigners","offset":0,"slot":"2","type":"t_mapping(t_address,t_bool)"},{"astId":6259,"contract":"contracts/TokenPaymaster.sol:TokenPaymaster","label":"usedNonces","offset":0,"slot":"3","type":"t_mapping(t_bytes32,t_bool)"}],"types":{"t_address":{"encoding":"inplace","label":"address","numberOfBytes":"20"},"t_bool":{"encoding":"inplace","label":"bool","numberOfBytes":"1"},"t_bytes32":{"encoding":"inplace","label":"bytes32","numberOfBytes":"32"},"t_mapping(t_address,t_bool)":{"encoding":"mapping","key":"t_address","label":"mapping(address => bool)","numberOfBytes":"32","value":"t_bool"},"t_mapping(t_bytes32,t_bool)":{"encoding":"mapping","key":"t_bytes32","label":"mapping(bytes32 => bool)","numberOfBytes":"32","value":"t_bool"},"t_uint256":{"encoding":"inplace","label":"uint256","numberOfBytes":"32"}}}}}}