{"contracts/SimpleAccount.sol":{"SimpleAccount":{"abi":[{"inputs":[],"name":"ECDSAInvalidSignature","type":"error"},{"inputs":[{"internalType":"uint256","name":"length","type":"uint256"}],"name":"ECDSAInvalidSignatureLength","type":"error"},{"inputs":[{"internalType":"bytes32","name":"s","type":"bytes32"}],"name":"ECDSAInvalidSignatureS","type":"error"},{"inputs":[],"name":"InvalidAddress","type":"error"},{"inputs":[],"name":"InvalidInitialization","type":"error"},{"inputs":[],"name":"InvalidTarget","type":"error"},{"inputs":[],"name":"NotInitializing","type":"error"},{"anonymous":false,"inputs":[{"indexed":true,"internalType":"bytes32","name":"txHash","type":"bytes32"}],"name":"ExecutionFailure","type":"event"},{"anonymous":false,"inputs":[{"indexed":true,"internalType":"bytes32","name":"txHash","type":"bytes32"}],"name":"ExecutionSuccess","type":"event"},{"anonymous":false,"inputs":[{"indexed":false,"internalType":"uint64","name":"version","type":"uint64"}],"name":"Initialized","type":"event"},{"inputs":[],"name":"entryPoint","outputs":[{"internalType":"address","name":"","type":"address"}],"stateMutability":"view","type":"function"},{"inputs":[{"internalType":"address[]","name":"targets","type":"address[]"},{"internalType":"uint256[]","name":"values","type":"uint256[]"},{"internalType":"bytes[]","name":"datas","type":"bytes[]"}],"name":"executeBatch","outputs":[],"stateMutability":"nonpayable","type":"function"},{"inputs":[{"internalType":"address","name":"target","type":"address"},{"internalType":"uint256","name":"value","type":"uint256"},{"internalType":"bytes","name":"data","type":"bytes"}],"name":"executeCall","outputs":[{"internalType":"bool","name":"success","type":"bool"},{"internalType":"bytes","name":"result","type":"bytes"}],"stateMutability":"nonpayable","type":"function"},{"inputs":[],"name":"increaseNonce","outputs":[],"stateMutability":"nonpayable","type":"function"},{"inputs":[{"internalType":"address","name":"_owner","type":"address"},{"internalType":"address","name":"_entryPoint","type":"address"}],"name":"initialize","outputs":[],"stateMutability":"nonpayable","type":"function"},{"inputs":[],"name":"nonce","outputs":[{"internalType":"uint256","name":"","type":"uint256"}],"stateMutability":"view","type":"function"},{"inputs":[],"name":"owner","outputs":[{"internalType":"address","name":"","type":"address"}],"stateMutability":"view","type":"function"},{"inputs":[{"internalType":"bytes","name":"signature","type":"bytes"}],"name":"validateUserOp","outputs":[],"stateMutability":"view","type":"function"},{"stateMutability":"payable","type":"receive"}],"evm":{"bytecode":{"linkReferences":{},"object":"6080806040523461001657610a32908161001c8239f35b600080fdfe60406080815260049081361015610020575b5050361561001e57600080fd5b005b600090813560e01c90816347e1da2a14610517578163485cc955146103935781638da5cb5b1461036b5781639471401c1461023f5781639e5d4c491461011d578163affed0e0146100fe578163b0d691fe146100d1575063c53a02920361001157346100ce57806003193601126100ce576100a660018060a01b0360015416331461086d565b60025460001981146100bb5760010160025580f35b506011602492634e487b7160e01b835252fd5b80fd5b9050346100fa57816003193601126100fa5760015490516001600160a01b039091168152602090f35b5080fd5b9050346100fa57816003193601126100fa576020906002549051908152f35b919050346100ce576060806003193601126100fa5761013a610732565b60443567ffffffffffffffff811161023b576101599036908701610748565b9160018060a01b0361016f818754163314610776565b81161561022b578285939284938851928392833781018481520391602435905af19361019961083d565b94156101f55750838380519384926001845260209483602086015281518094860152825b8481106101df5750505060608094508284010152601f80199101168101030190f35b80830187015188820183015287955086016101bd565b606490602085519162461bcd60e51b8352820152601060248201526f115e1958dd5d1a5bdb8819985a5b195960821b6044820152fd5b855163416aebb560e11b81528790fd5b8380fd5b83915034610367576020908160031936011261023b57823567ffffffffffffffff8111610363576102739036908501610748565b6001546001600160a01b03919061028d908316331461086d565b835185810190368983376102af87823681018c838201520380845201826107e9565b5190207f19457468657265756d205369676e6564204d6573736167653a0a3332000000008852601c52603c87206102e582610821565b906102f2865192836107e9565b8282528836848701116100ce5787846103169561031f9883870137840101526108ab565b909391936108e7565b8086541691160361032e578380f35b5162461bcd60e51b8152918201526011602482015270496e76616c6964207369676e617475726560781b604482015260649150fd5b8480fd5b8280fd5b9050346100fa57816003193601126100fa57905490516001600160a01b039091168152602090f35b905082346103675781600319360112610367576103ae610732565b6001600160a01b03916024358381169190829003610513577ff0c57e16840df040f15088dc2f81fe391c3923bec73e23a9662efc9c229c6a009384549360ff85881c16159467ffffffffffffffff81168015908161050b575b6001149081610501575b1590816104f8575b506104e85767ffffffffffffffff1981166001178755856104c9575b501690811580156104c1575b6104b357506bffffffffffffffffffffffff60a01b9081875416178655600154161760015583600255610472578280f35b805468ff00000000000000001916905551600181527fc7f505b2f371ae2175ee4913f4499e1f2633a7b5936321eed1cdaeb6115181d290602090a181808280f35b855163e6c4247b60e01b8152fd5b508215610441565b68ffffffffffffffffff19166801000000000000000117865588610435565b875163f92ee8a960e01b81528490fd5b9050158a610419565b303b159150610411565b879150610407565b8580fd5b82939150346106f85760603660031901126106f85767ffffffffffffffff9082358281116103635761054c90369085016106fc565b90916024926024358581116106f45761056890369088016106fc565b9590916044966044358381116106f0576105859036908b016106fc565b96909261059d60018060a01b03809d54163314610776565b828214806106e7575b156106ac578c5b8281106105b8578d80f35b8c6105cc6105c78386866107af565b6107d5565b161561069c576105e06105c78285856107af565b6105eb82868a6107af565b358a831015610689578f908360051b880135601e19893603018112156103675788019283358a811161023b576020809501928136038413610363578493828f519384928337810185815203925af161064161083d565b501561065057506001016105ad565b8c7510985d18da08195e1958dd5d1a5bdb8819985a5b195960521b8d60168e6064958e519562461bcd60e51b8752860152840152820152fd5b50634e487b7160e01b8f5260328d528a8ffd5b875163416aebb560e11b81528c90fd5b865162461bcd60e51b81526020818d01526015602482015274082e4e4c2f240d8cadccee8d040dad2e6dac2e8c6d605b1b6044820152606490fd5b508782146105a6565b8a80fd5b8780fd5b5050fd5b9181601f8401121561072d5782359167ffffffffffffffff831161072d576020808501948460051b01011161072d57565b600080fd5b600435906001600160a01b038216820361072d57565b9181601f8401121561072d5782359167ffffffffffffffff831161072d576020838186019501011161072d57565b1561077d57565b60405162461bcd60e51b815260206004820152600a60248201526927b7363c9037bbb732b960b11b6044820152606490fd5b91908110156107bf5760051b0190565b634e487b7160e01b600052603260045260246000fd5b356001600160a01b038116810361072d5790565b90601f8019910116810190811067ffffffffffffffff82111761080b57604052565b634e487b7160e01b600052604160045260246000fd5b67ffffffffffffffff811161080b57601f01601f191660200190565b3d15610868573d9061084e82610821565b9161085c60405193846107e9565b82523d6000602084013e565b606090565b1561087457565b60405162461bcd60e51b815260206004820152600f60248201526e13db9b1e48115b9d1c9e541bda5b9d608a1b6044820152606490fd5b81519190604183036108dc576108d592506020820151906060604084015193015160001a9061096c565b9192909190565b505060009160029190565b600481101561095657806108f9575050565b600181036109135760405163f645eedf60e01b8152600490fd5b600281036109345760405163fce698f760e01b815260048101839052602490fd5b60031461093e5750565b602490604051906335e2f38360e21b82526004820152fd5b634e487b7160e01b600052602160045260246000fd5b91907f7fffffffffffffffffffffffffffffff5d576e7357a4501ddfe92f46681b20a084116109f057926020929160ff608095604051948552168484015260408301526060820152600092839182805260015afa156109e45780516001600160a01b038116156109db57918190565b50809160019190565b604051903d90823e3d90fd5b5050506000916003919056fea2646970667358221220d43af8bf67234837cd0485187093ecd0ced7e82c6c6c317eef9fde9c0a77fb4964736f6c63430008180033","opcodes":"PUSH1 0x80 DUP1 PUSH1 0x40 MSTORE CALLVALUE PUSH2 0x16 JUMPI PUSH2 0xA32 SWAP1 DUP2 PUSH2 0x1C DUP3 CODECOPY RETURN JUMPDEST PUSH1 0x0 DUP1 REVERT INVALID PUSH1 0x40 PUSH1 0x80 DUP2 MSTORE PUSH1 0x4 SWAP1 DUP2 CALLDATASIZE LT ISZERO PUSH2 0x20 JUMPI JUMPDEST POP POP CALLDATASIZE ISZERO PUSH2 0x1E JUMPI PUSH1 0x0 DUP1 REVERT JUMPDEST STOP JUMPDEST PUSH1 0x0 SWAP1 DUP2 CALLDATALOAD PUSH1 0xE0 SHR SWAP1 DUP2 PUSH4 0x47E1DA2A EQ PUSH2 0x517 JUMPI DUP2 PUSH4 0x485CC955 EQ PUSH2 0x393 JUMPI DUP2 PUSH4 0x8DA5CB5B EQ PUSH2 0x36B JUMPI DUP2 PUSH4 0x9471401C EQ PUSH2 0x23F JUMPI DUP2 PUSH4 0x9E5D4C49 EQ PUSH2 0x11D JUMPI DUP2 PUSH4 0xAFFED0E0 EQ PUSH2 0xFE JUMPI DUP2 PUSH4 0xB0D691FE EQ PUSH2 0xD1 JUMPI POP PUSH4 0xC53A0292 SUB PUSH2 0x11 JUMPI CALLVALUE PUSH2 0xCE JUMPI DUP1 PUSH1 0x3 NOT CALLDATASIZE ADD SLT PUSH2 0xCE JUMPI PUSH2 0xA6 PUSH1 0x1 DUP1 PUSH1 0xA0 SHL SUB PUSH1 0x1 SLOAD AND CALLER EQ PUSH2 0x86D JUMP JUMPDEST PUSH1 0x2 SLOAD PUSH1 0x0 NOT DUP2 EQ PUSH2 0xBB JUMPI PUSH1 0x1 ADD PUSH1 0x2 SSTORE DUP1 RETURN JUMPDEST POP PUSH1 0x11 PUSH1 0x24 SWAP3 PUSH4 0x4E487B71 PUSH1 0xE0 SHL DUP4 MSTORE MSTORE REVERT JUMPDEST DUP1 REVERT JUMPDEST SWAP1 POP CALLVALUE PUSH2 0xFA JUMPI DUP2 PUSH1 0x3 NOT CALLDATASIZE ADD SLT PUSH2 0xFA JUMPI PUSH1 0x1 SLOAD SWAP1 MLOAD PUSH1 0x1 PUSH1 0x1 PUSH1 0xA0 SHL SUB SWAP1 SWAP2 AND DUP2 MSTORE PUSH1 0x20 SWAP1 RETURN JUMPDEST POP DUP1 REVERT JUMPDEST SWAP1 POP CALLVALUE PUSH2 0xFA JUMPI DUP2 PUSH1 0x3 NOT CALLDATASIZE ADD SLT PUSH2 0xFA JUMPI PUSH1 0x20 SWAP1 PUSH1 0x2 SLOAD SWAP1 MLOAD SWAP1 DUP2 MSTORE RETURN JUMPDEST SWAP2 SWAP1 POP CALLVALUE PUSH2 0xCE JUMPI PUSH1 0x60 DUP1 PUSH1 0x3 NOT CALLDATASIZE ADD SLT PUSH2 0xFA JUMPI PUSH2 0x13A PUSH2 0x732 JUMP JUMPDEST PUSH1 0x44 CALLDATALOAD PUSH8 0xFFFFFFFFFFFFFFFF DUP2 GT PUSH2 0x23B JUMPI PUSH2 0x159 SWAP1 CALLDATASIZE SWAP1 DUP8 ADD PUSH2 0x748 JUMP JUMPDEST SWAP2 PUSH1 0x1 DUP1 PUSH1 0xA0 SHL SUB PUSH2 0x16F DUP2 DUP8 SLOAD AND CALLER EQ PUSH2 0x776 JUMP JUMPDEST DUP2 AND ISZERO PUSH2 0x22B JUMPI DUP3 DUP6 SWAP4 SWAP3 DUP5 SWAP4 DUP9 MLOAD SWAP3 DUP4 SWAP3 DUP4 CALLDATACOPY DUP2 ADD DUP5 DUP2 MSTORE SUB SWAP2 PUSH1 0x24 CALLDATALOAD SWAP1 GAS CALL SWAP4 PUSH2 0x199 PUSH2 0x83D JUMP JUMPDEST SWAP5 ISZERO PUSH2 0x1F5 JUMPI POP DUP4 DUP4 DUP1 MLOAD SWAP4 DUP5 SWAP3 PUSH1 0x1 DUP5 MSTORE PUSH1 0x20 SWAP5 DUP4 PUSH1 0x20 DUP7 ADD MSTORE DUP2 MLOAD DUP1 SWAP5 DUP7 ADD MSTORE DUP3 JUMPDEST DUP5 DUP2 LT PUSH2 0x1DF JUMPI POP POP POP PUSH1 0x60 DUP1 SWAP5 POP DUP3 DUP5 ADD ADD MSTORE PUSH1 0x1F DUP1 NOT SWAP2 ADD AND DUP2 ADD SUB ADD SWAP1 RETURN JUMPDEST DUP1 DUP4 ADD DUP8 ADD MLOAD DUP9 DUP3 ADD DUP4 ADD MSTORE DUP8 SWAP6 POP DUP7 ADD PUSH2 0x1BD JUMP JUMPDEST PUSH1 0x64 SWAP1 PUSH1 0x20 DUP6 MLOAD SWAP2 PUSH3 0x461BCD PUSH1 0xE5 SHL DUP4 MSTORE DUP3 ADD MSTORE PUSH1 0x10 PUSH1 0x24 DUP3 ADD MSTORE PUSH16 0x115E1958DD5D1A5BDB8819985A5B1959 PUSH1 0x82 SHL PUSH1 0x44 DUP3 ADD MSTORE REVERT JUMPDEST DUP6 MLOAD PUSH4 0x416AEBB5 PUSH1 0xE1 SHL DUP2 MSTORE DUP8 SWAP1 REVERT JUMPDEST DUP4 DUP1 REVERT JUMPDEST DUP4 SWAP2 POP CALLVALUE PUSH2 0x367 JUMPI PUSH1 0x20 SWAP1 DUP2 PUSH1 0x3 NOT CALLDATASIZE ADD SLT PUSH2 0x23B JUMPI DUP3 CALLDATALOAD PUSH8 0xFFFFFFFFFFFFFFFF DUP2 GT PUSH2 0x363 JUMPI PUSH2 0x273 SWAP1 CALLDATASIZE SWAP1 DUP6 ADD PUSH2 0x748 JUMP JUMPDEST PUSH1 0x1 SLOAD PUSH1 0x1 PUSH1 0x1 PUSH1 0xA0 SHL SUB SWAP2 SWAP1 PUSH2 0x28D SWAP1 DUP4 AND CALLER EQ PUSH2 0x86D JUMP JUMPDEST DUP4 MLOAD DUP6 DUP2 ADD SWAP1 CALLDATASIZE DUP10 DUP4 CALLDATACOPY PUSH2 0x2AF DUP8 DUP3 CALLDATASIZE DUP2 ADD DUP13 DUP4 DUP3 ADD MSTORE SUB DUP1 DUP5 MSTORE ADD DUP3 PUSH2 0x7E9 JUMP JUMPDEST MLOAD SWAP1 KECCAK256 PUSH32 0x19457468657265756D205369676E6564204D6573736167653A0A333200000000 DUP9 MSTORE PUSH1 0x1C MSTORE PUSH1 0x3C DUP8 KECCAK256 PUSH2 0x2E5 DUP3 PUSH2 0x821 JUMP JUMPDEST SWAP1 PUSH2 0x2F2 DUP7 MLOAD SWAP3 DUP4 PUSH2 0x7E9 JUMP JUMPDEST DUP3 DUP3 MSTORE DUP9 CALLDATASIZE DUP5 DUP8 ADD GT PUSH2 0xCE JUMPI DUP8 DUP5 PUSH2 0x316 SWAP6 PUSH2 0x31F SWAP9 DUP4 DUP8 ADD CALLDATACOPY DUP5 ADD ADD MSTORE PUSH2 0x8AB JUMP JUMPDEST SWAP1 SWAP4 SWAP2 SWAP4 PUSH2 0x8E7 JUMP JUMPDEST DUP1 DUP7 SLOAD AND SWAP2 AND SUB PUSH2 0x32E JUMPI DUP4 DUP1 RETURN JUMPDEST MLOAD PUSH3 0x461BCD PUSH1 0xE5 SHL DUP2 MSTORE SWAP2 DUP3 ADD MSTORE PUSH1 0x11 PUSH1 0x24 DUP3 ADD MSTORE PUSH17 0x496E76616C6964207369676E6174757265 PUSH1 0x78 SHL PUSH1 0x44 DUP3 ADD MSTORE PUSH1 0x64 SWAP2 POP REVERT JUMPDEST DUP5 DUP1 REVERT JUMPDEST DUP3 DUP1 REVERT JUMPDEST SWAP1 POP CALLVALUE PUSH2 0xFA JUMPI DUP2 PUSH1 0x3 NOT CALLDATASIZE ADD SLT PUSH2 0xFA JUMPI SWAP1 SLOAD SWAP1 MLOAD PUSH1 0x1 PUSH1 0x1 PUSH1 0xA0 SHL SUB SWAP1 SWAP2 AND DUP2 MSTORE PUSH1 0x20 SWAP1 RETURN JUMPDEST SWAP1 POP DUP3 CALLVALUE PUSH2 0x367 JUMPI DUP2 PUSH1 0x3 NOT CALLDATASIZE ADD SLT PUSH2 0x367 JUMPI PUSH2 0x3AE PUSH2 0x732 JUMP JUMPDEST PUSH1 0x1 PUSH1 0x1 PUSH1 0xA0 SHL SUB SWAP2 PUSH1 0x24 CALLDATALOAD DUP4 DUP2 AND SWAP2 SWAP1 DUP3 SWAP1 SUB PUSH2 0x513 JUMPI PUSH32 0xF0C57E16840DF040F15088DC2F81FE391C3923BEC73E23A9662EFC9C229C6A00 SWAP4 DUP5 SLOAD SWAP4 PUSH1 0xFF DUP6 DUP9 SHR AND ISZERO SWAP5 PUSH8 0xFFFFFFFFFFFFFFFF DUP2 AND DUP1 ISZERO SWAP1 DUP2 PUSH2 0x50B JUMPI JUMPDEST PUSH1 0x1 EQ SWAP1 DUP2 PUSH2 0x501 JUMPI JUMPDEST ISZERO SWAP1 DUP2 PUSH2 0x4F8 JUMPI JUMPDEST POP PUSH2 0x4E8 JUMPI PUSH8 0xFFFFFFFFFFFFFFFF NOT DUP2 AND PUSH1 0x1 OR DUP8 SSTORE DUP6 PUSH2 0x4C9 JUMPI JUMPDEST POP AND SWAP1 DUP2 ISZERO DUP1 ISZERO PUSH2 0x4C1 JUMPI JUMPDEST PUSH2 0x4B3 JUMPI POP PUSH12 0xFFFFFFFFFFFFFFFFFFFFFFFF PUSH1 0xA0 SHL SWAP1 DUP2 DUP8 SLOAD AND OR DUP7 SSTORE PUSH1 0x1 SLOAD AND OR PUSH1 0x1 SSTORE DUP4 PUSH1 0x2 SSTORE PUSH2 0x472 JUMPI DUP3 DUP1 RETURN JUMPDEST DUP1 SLOAD PUSH9 0xFF0000000000000000 NOT AND SWAP1 SSTORE MLOAD PUSH1 0x1 DUP2 MSTORE PUSH32 0xC7F505B2F371AE2175EE4913F4499E1F2633A7B5936321EED1CDAEB6115181D2 SWAP1 PUSH1 0x20 SWAP1 LOG1 DUP2 DUP1 DUP3 DUP1 RETURN JUMPDEST DUP6 MLOAD PUSH4 0xE6C4247B PUSH1 0xE0 SHL DUP2 MSTORE REVERT JUMPDEST POP DUP3 ISZERO PUSH2 0x441 JUMP JUMPDEST PUSH9 0xFFFFFFFFFFFFFFFFFF NOT AND PUSH9 0x10000000000000001 OR DUP7 SSTORE DUP9 PUSH2 0x435 JUMP JUMPDEST DUP8 MLOAD PUSH4 0xF92EE8A9 PUSH1 0xE0 SHL DUP2 MSTORE DUP5 SWAP1 REVERT JUMPDEST SWAP1 POP ISZERO DUP11 PUSH2 0x419 JUMP JUMPDEST ADDRESS EXTCODESIZE ISZERO SWAP2 POP PUSH2 0x411 JUMP JUMPDEST DUP8 SWAP2 POP PUSH2 0x407 JUMP JUMPDEST DUP6 DUP1 REVERT JUMPDEST DUP3 SWAP4 SWAP2 POP CALLVALUE PUSH2 0x6F8 JUMPI PUSH1 0x60 CALLDATASIZE PUSH1 0x3 NOT ADD SLT PUSH2 0x6F8 JUMPI PUSH8 0xFFFFFFFFFFFFFFFF SWAP1 DUP3 CALLDATALOAD DUP3 DUP2 GT PUSH2 0x363 JUMPI PUSH2 0x54C SWAP1 CALLDATASIZE SWAP1 DUP6 ADD PUSH2 0x6FC JUMP JUMPDEST SWAP1 SWAP2 PUSH1 0x24 SWAP3 PUSH1 0x24 CALLDATALOAD DUP6 DUP2 GT PUSH2 0x6F4 JUMPI PUSH2 0x568 SWAP1 CALLDATASIZE SWAP1 DUP9 ADD PUSH2 0x6FC JUMP JUMPDEST SWAP6 SWAP1 SWAP2 PUSH1 0x44 SWAP7 PUSH1 0x44 CALLDATALOAD DUP4 DUP2 GT PUSH2 0x6F0 JUMPI PUSH2 0x585 SWAP1 CALLDATASIZE SWAP1 DUP12 ADD PUSH2 0x6FC JUMP JUMPDEST SWAP7 SWAP1 SWAP3 PUSH2 0x59D PUSH1 0x1 DUP1 PUSH1 0xA0 SHL SUB DUP1 SWAP14 SLOAD AND CALLER EQ PUSH2 0x776 JUMP JUMPDEST DUP3 DUP3 EQ DUP1 PUSH2 0x6E7 JUMPI JUMPDEST ISZERO PUSH2 0x6AC JUMPI DUP13 JUMPDEST DUP3 DUP2 LT PUSH2 0x5B8 JUMPI DUP14 DUP1 RETURN JUMPDEST DUP13 PUSH2 0x5CC PUSH2 0x5C7 DUP4 DUP7 DUP7 PUSH2 0x7AF JUMP JUMPDEST PUSH2 0x7D5 JUMP JUMPDEST AND ISZERO PUSH2 0x69C JUMPI PUSH2 0x5E0 PUSH2 0x5C7 DUP3 DUP6 DUP6 PUSH2 0x7AF JUMP JUMPDEST PUSH2 0x5EB DUP3 DUP7 DUP11 PUSH2 0x7AF JUMP JUMPDEST CALLDATALOAD DUP11 DUP4 LT ISZERO PUSH2 0x689 JUMPI DUP16 SWAP1 DUP4 PUSH1 0x5 SHL DUP9 ADD CALLDATALOAD PUSH1 0x1E NOT DUP10 CALLDATASIZE SUB ADD DUP2 SLT ISZERO PUSH2 0x367 JUMPI DUP9 ADD SWAP3 DUP4 CALLDATALOAD DUP11 DUP2 GT PUSH2 0x23B JUMPI PUSH1 0x20 DUP1 SWAP6 ADD SWAP3 DUP2 CALLDATASIZE SUB DUP5 SGT PUSH2 0x363 JUMPI DUP5 SWAP4 DUP3 DUP16 MLOAD SWAP4 DUP5 SWAP3 DUP4 CALLDATACOPY DUP2 ADD DUP6 DUP2 MSTORE SUB SWAP3 GAS CALL PUSH2 0x641 PUSH2 0x83D JUMP JUMPDEST POP ISZERO PUSH2 0x650 JUMPI POP PUSH1 0x1 ADD PUSH2 0x5AD JUMP JUMPDEST DUP13 PUSH22 0x10985D18DA08195E1958DD5D1A5BDB8819985A5B1959 PUSH1 0x52 SHL DUP14 PUSH1 0x16 DUP15 PUSH1 0x64 SWAP6 DUP15 MLOAD SWAP6 PUSH3 0x461BCD PUSH1 0xE5 SHL DUP8 MSTORE DUP7 ADD MSTORE DUP5 ADD MSTORE DUP3 ADD MSTORE REVERT JUMPDEST POP PUSH4 0x4E487B71 PUSH1 0xE0 SHL DUP16 MSTORE PUSH1 0x32 DUP14 MSTORE DUP11 DUP16 REVERT JUMPDEST DUP8 MLOAD PUSH4 0x416AEBB5 PUSH1 0xE1 SHL DUP2 MSTORE DUP13 SWAP1 REVERT JUMPDEST DUP7 MLOAD PUSH3 0x461BCD PUSH1 0xE5 SHL DUP2 MSTORE PUSH1 0x20 DUP2 DUP14 ADD MSTORE PUSH1 0x15 PUSH1 0x24 DUP3 ADD MSTORE PUSH21 0x82E4E4C2F240D8CADCCEE8D040DAD2E6DAC2E8C6D PUSH1 0x5B SHL PUSH1 0x44 DUP3 ADD MSTORE PUSH1 0x64 SWAP1 REVERT JUMPDEST POP DUP8 DUP3 EQ PUSH2 0x5A6 JUMP JUMPDEST DUP11 DUP1 REVERT JUMPDEST DUP8 DUP1 REVERT JUMPDEST POP POP REVERT JUMPDEST SWAP2 DUP2 PUSH1 0x1F DUP5 ADD SLT ISZERO PUSH2 0x72D JUMPI DUP3 CALLDATALOAD SWAP2 PUSH8 0xFFFFFFFFFFFFFFFF DUP4 GT PUSH2 0x72D JUMPI PUSH1 0x20 DUP1 DUP6 ADD SWAP5 DUP5 PUSH1 0x5 SHL ADD ADD GT PUSH2 0x72D JUMPI JUMP JUMPDEST PUSH1 0x0 DUP1 REVERT JUMPDEST PUSH1 0x4 CALLDATALOAD SWAP1 PUSH1 0x1 PUSH1 0x1 PUSH1 0xA0 SHL SUB DUP3 AND DUP3 SUB PUSH2 0x72D JUMPI JUMP JUMPDEST SWAP2 DUP2 PUSH1 0x1F DUP5 ADD SLT ISZERO PUSH2 0x72D JUMPI DUP3 CALLDATALOAD SWAP2 PUSH8 0xFFFFFFFFFFFFFFFF DUP4 GT PUSH2 0x72D JUMPI PUSH1 0x20 DUP4 DUP2 DUP7 ADD SWAP6 ADD ADD GT PUSH2 0x72D JUMPI JUMP JUMPDEST ISZERO PUSH2 0x77D JUMPI JUMP JUMPDEST PUSH1 0x40 MLOAD PUSH3 0x461BCD PUSH1 0xE5 SHL DUP2 MSTORE PUSH1 0x20 PUSH1 0x4 DUP3 ADD MSTORE PUSH1 0xA PUSH1 0x24 DUP3 ADD MSTORE PUSH10 0x27B7363C9037BBB732B9 PUSH1 0xB1 SHL PUSH1 0x44 DUP3 ADD MSTORE PUSH1 0x64 SWAP1 REVERT JUMPDEST SWAP2 SWAP1 DUP2 LT ISZERO PUSH2 0x7BF JUMPI PUSH1 0x5 SHL ADD SWAP1 JUMP JUMPDEST PUSH4 0x4E487B71 PUSH1 0xE0 SHL PUSH1 0x0 MSTORE PUSH1 0x32 PUSH1 0x4 MSTORE PUSH1 0x24 PUSH1 0x0 REVERT JUMPDEST CALLDATALOAD PUSH1 0x1 PUSH1 0x1 PUSH1 0xA0 SHL SUB DUP2 AND DUP2 SUB PUSH2 0x72D JUMPI SWAP1 JUMP JUMPDEST SWAP1 PUSH1 0x1F DUP1 NOT SWAP2 ADD AND DUP2 ADD SWAP1 DUP2 LT PUSH8 0xFFFFFFFFFFFFFFFF DUP3 GT OR PUSH2 0x80B JUMPI PUSH1 0x40 MSTORE JUMP JUMPDEST PUSH4 0x4E487B71 PUSH1 0xE0 SHL PUSH1 0x0 MSTORE PUSH1 0x41 PUSH1 0x4 MSTORE PUSH1 0x24 PUSH1 0x0 REVERT JUMPDEST PUSH8 0xFFFFFFFFFFFFFFFF DUP2 GT PUSH2 0x80B JUMPI PUSH1 0x1F ADD PUSH1 0x1F NOT AND PUSH1 0x20 ADD SWAP1 JUMP JUMPDEST RETURNDATASIZE ISZERO PUSH2 0x868 JUMPI RETURNDATASIZE SWAP1 PUSH2 0x84E DUP3 PUSH2 0x821 JUMP JUMPDEST SWAP2 PUSH2 0x85C PUSH1 0x40 MLOAD SWAP4 DUP5 PUSH2 0x7E9 JUMP JUMPDEST DUP3 MSTORE RETURNDATASIZE PUSH1 0x0 PUSH1 0x20 DUP5 ADD RETURNDATACOPY JUMP JUMPDEST PUSH1 0x60 SWAP1 JUMP JUMPDEST ISZERO PUSH2 0x874 JUMPI JUMP JUMPDEST PUSH1 0x40 MLOAD PUSH3 0x461BCD PUSH1 0xE5 SHL DUP2 MSTORE PUSH1 0x20 PUSH1 0x4 DUP3 ADD MSTORE PUSH1 0xF PUSH1 0x24 DUP3 ADD MSTORE PUSH15 0x13DB9B1E48115B9D1C9E541BDA5B9D PUSH1 0x8A SHL PUSH1 0x44 DUP3 ADD MSTORE PUSH1 0x64 SWAP1 REVERT JUMPDEST DUP2 MLOAD SWAP2 SWAP1 PUSH1 0x41 DUP4 SUB PUSH2 0x8DC JUMPI PUSH2 0x8D5 SWAP3 POP PUSH1 0x20 DUP3 ADD MLOAD SWAP1 PUSH1 0x60 PUSH1 0x40 DUP5 ADD MLOAD SWAP4 ADD MLOAD PUSH1 0x0 BYTE SWAP1 PUSH2 0x96C JUMP JUMPDEST SWAP2 SWAP3 SWAP1 SWAP2 SWAP1 JUMP JUMPDEST POP POP PUSH1 0x0 SWAP2 PUSH1 0x2 SWAP2 SWAP1 JUMP JUMPDEST PUSH1 0x4 DUP2 LT ISZERO PUSH2 0x956 JUMPI DUP1 PUSH2 0x8F9 JUMPI POP POP JUMP JUMPDEST PUSH1 0x1 DUP2 SUB PUSH2 0x913 JUMPI PUSH1 0x40 MLOAD PUSH4 0xF645EEDF PUSH1 0xE0 SHL DUP2 MSTORE PUSH1 0x4 SWAP1 REVERT JUMPDEST PUSH1 0x2 DUP2 SUB PUSH2 0x934 JUMPI PUSH1 0x40 MLOAD PUSH4 0xFCE698F7 PUSH1 0xE0 SHL DUP2 MSTORE PUSH1 0x4 DUP2 ADD DUP4 SWAP1 MSTORE PUSH1 0x24 SWAP1 REVERT JUMPDEST PUSH1 0x3 EQ PUSH2 0x93E JUMPI POP JUMP JUMPDEST PUSH1 0x24 SWAP1 PUSH1 0x40 MLOAD SWAP1 PUSH4 0x35E2F383 PUSH1 0xE2 SHL DUP3 MSTORE PUSH1 0x4 DUP3 ADD MSTORE REVERT JUMPDEST PUSH4 0x4E487B71 PUSH1 0xE0 SHL PUSH1 0x0 MSTORE PUSH1 0x21 PUSH1 0x4 MSTORE PUSH1 0x24 PUSH1 0x0 REVERT JUMPDEST SWAP2 SWAP1 PUSH32 0x7FFFFFFFFFFFFFFFFFFFFFFFFFFFFFFF5D576E7357A4501DDFE92F46681B20A0 DUP5 GT PUSH2 0x9F0 JUMPI SWAP3 PUSH1 0x20 SWAP3 SWAP2 PUSH1 0xFF PUSH1 0x80 SWAP6 PUSH1 0x40 MLOAD SWAP5 DUP6 MSTORE AND DUP5 DUP5 ADD MSTORE PUSH1 0x40 DUP4 ADD MSTORE PUSH1 0x60 DUP3 ADD MSTORE PUSH1 0x0 SWAP3 DUP4 SWAP2 DUP3 DUP1 MSTORE PUSH1 0x1 GAS STATICCALL ISZERO PUSH2 0x9E4 JUMPI DUP1 MLOAD PUSH1 0x1 PUSH1 0x1 PUSH1 0xA0 SHL SUB DUP2 AND ISZERO PUSH2 0x9DB JUMPI SWAP2 DUP2 SWAP1 JUMP JUMPDEST POP DUP1 SWAP2 PUSH1 0x1 SWAP2 SWAP1 JUMP JUMPDEST PUSH1 0x40 MLOAD SWAP1 RETURNDATASIZE SWAP1 DUP3 RETURNDATACOPY RETURNDATASIZE SWAP1 REVERT JUMPDEST POP POP POP PUSH1 0x0 SWAP2 PUSH1 0x3 SWAP2 SWAP1 JUMP INVALID LOG2 PUSH5 0x6970667358 0x22 SLT KECCAK256 0xD4 GASPRICE 0xF8 0xBF PUSH8 0x234837CD04851870 SWAP4 0xEC 0xD0 0xCE 0xD7 0xE8 0x2C PUSH13 0x6C317EEF9FDE9C0A77FB496473 PUSH16 0x6C634300081800330000000000000000 "},"methodIdentifiers":{"entryPoint()":"b0d691fe","executeBatch(address[],uint256[],bytes[])":"47e1da2a","executeCall(address,uint256,bytes)":"9e5d4c49","increaseNonce()":"c53a0292","initialize(address,address)":"485cc955","nonce()":"affed0e0","owner()":"8da5cb5b","validateUserOp(bytes)":"9471401c"}},"storageLayout":{"storage":[{"astId":5979,"contract":"contracts/SimpleAccount.sol:SimpleAccount","label":"owner","offset":0,"slot":"0","type":"t_address"},{"astId":5981,"contract":"contracts/SimpleAccount.sol:SimpleAccount","label":"entryPoint","offset":0,"slot":"1","type":"t_address"},{"astId":5983,"contract":"contracts/SimpleAccount.sol:SimpleAccount","label":"nonce","offset":0,"slot":"2","type":"t_uint256"}],"types":{"t_address":{"encoding":"inplace","label":"address","numberOfBytes":"20"},"t_uint256":{"encoding":"inplace","label":"uint256","numberOfBytes":"32"}}}}}}