{
  "_format": "hh-sol-artifact-1",
  "contractName": "SimpleAccount",
  "sourceName": "contracts/SimpleAccount.sol",
  "abi": [
    {
      "inputs": [],
      "name": "ECDSAInvalidSignature",
      "type": "error"
    },
    {
      "inputs": [
        {
          "internalType": "uint256",
          "name": "length",
          "type": "uint256"
        }
      ],
      "name": "ECDSAInvalidSignatureLength",
      "type": "error"
    },
    {
      "inputs": [
        {
          "internalType": "bytes32",
          "name": "s",
          "type": "bytes32"
        }
      ],
      "name": "ECDSAInvalidSignatureS",
      "type": "error"
    },
    {
      "inputs": [],
      "name": "InvalidInitialization",
      "type": "error"
    },
    {
      "inputs": [],
      "name": "NotInitializing",
      "type": "error"
    },
    {
      "anonymous": false,
      "inputs": [
        {
          "indexed": true,
          "internalType": "bytes32",
          "name": "txHash",
          "type": "bytes32"
        }
      ],
      "name": "ExecutionFailure",
      "type": "event"
    },
    {
      "anonymous": false,
      "inputs": [
        {
          "indexed": true,
          "internalType": "bytes32",
          "name": "txHash",
          "type": "bytes32"
        }
      ],
      "name": "ExecutionSuccess",
      "type": "event"
    },
    {
      "anonymous": false,
      "inputs": [
        {
          "indexed": false,
          "internalType": "uint64",
          "name": "version",
          "type": "uint64"
        }
      ],
      "name": "Initialized",
      "type": "event"
    },
    {
      "inputs": [],
      "name": "entryPoint",
      "outputs": [
        {
          "internalType": "address",
          "name": "",
          "type": "address"
        }
      ],
      "stateMutability": "view",
      "type": "function"
    },
    {
      "inputs": [
        {
          "internalType": "address[]",
          "name": "targets",
          "type": "address[]"
        },
        {
          "internalType": "uint256[]",
          "name": "values",
          "type": "uint256[]"
        },
        {
          "internalType": "bytes[]",
          "name": "datas",
          "type": "bytes[]"
        }
      ],
      "name": "executeBatch",
      "outputs": [],
      "stateMutability": "nonpayable",
      "type": "function"
    },
    {
      "inputs": [
        {
          "internalType": "address",
          "name": "target",
          "type": "address"
        },
        {
          "internalType": "uint256",
          "name": "value",
          "type": "uint256"
        },
        {
          "internalType": "bytes",
          "name": "data",
          "type": "bytes"
        }
      ],
      "name": "executeCall",
      "outputs": [
        {
          "internalType": "bool",
          "name": "success",
          "type": "bool"
        },
        {
          "internalType": "bytes",
          "name": "result",
          "type": "bytes"
        }
      ],
      "stateMutability": "nonpayable",
      "type": "function"
    },
    {
      "inputs": [],
      "name": "increaseNonce",
      "outputs": [],
      "stateMutability": "nonpayable",
      "type": "function"
    },
    {
      "inputs": [
        {
          "internalType": "address",
          "name": "_owner",
          "type": "address"
        },
        {
          "internalType": "address",
          "name": "_entryPoint",
          "type": "address"
        }
      ],
      "name": "initialize",
      "outputs": [],
      "stateMutability": "nonpayable",
      "type": "function"
    },
    {
      "inputs": [],
      "name": "nonce",
      "outputs": [
        {
          "internalType": "uint256",
          "name": "",
          "type": "uint256"
        }
      ],
      "stateMutability": "view",
      "type": "function"
    },
    {
      "inputs": [],
      "name": "owner",
      "outputs": [
        {
          "internalType": "address",
          "name": "",
          "type": "address"
        }
      ],
      "stateMutability": "view",
      "type": "function"
    },
    {
      "inputs": [
        {
          "internalType": "bytes",
          "name": "signature",
          "type": "bytes"
        }
      ],
      "name": "validateUserOp",
      "outputs": [],
      "stateMutability": "view",
      "type": "function"
    },
    {
      "stateMutability": "payable",
      "type": "receive"
    }
  ],
  "bytecode": "0x60808060405234610016576109b3908161001c8239f35b600080fdfe60406080815260049081361015610020575b5050361561001e57600080fd5b005b600090813560e01c90816347e1da2a146104d7578163485cc955146103795781638da5cb5b146103515781639471401c146102255781639e5d4c491461011d578163affed0e0146100fe578163b0d691fe146100d1575063c53a02920361001157346100ce57806003193601126100ce576100a660018060a01b036001541633146107ee565b60025460001981146100bb5760010160025580f35b506011602492634e487b7160e01b835252fd5b80fd5b9050346100fa57816003193601126100fa5760015490516001600160a01b039091168152602090f35b5080fd5b9050346100fa57816003193601126100fa576020906002549051908152f35b919050346100ce576060806003193601126100fa5761013a6106c7565b60443567ffffffffffffffff811161022157839161015c8392369089016106dd565b9061017160018060a01b03855416331461070b565b818851928392833781018481520391602435905af19361018f6107be565b94156101eb5750838380519384926001845260209483602086015281518094860152825b8481106101d55750505060608094508284010152601f80199101168101030190f35b80830187015188820183015287955086016101b3565b606490602085519162461bcd60e51b8352820152601060248201526f115e1958dd5d1a5bdb8819985a5b195960821b6044820152fd5b8380fd5b8391503461034d576020908160031936011261022157823567ffffffffffffffff81116103495761025990369085016106dd565b6001546001600160a01b03919061027390831633146107ee565b8351858101903689833761029587823681018c8382015203808452018261076a565b5190207f19457468657265756d205369676e6564204d6573736167653a0a3332000000008852601c52603c87206102cb826107a2565b906102d88651928361076a565b8282528836848701116100ce5787846102fc9561030598838701378401015261082c565b90939193610868565b80865416911603610314578380f35b5162461bcd60e51b8152918201526011602482015270496e76616c6964207369676e617475726560781b604482015260649150fd5b8480fd5b8280fd5b9050346100fa57816003193601126100fa57905490516001600160a01b039091168152602090f35b9050823461034d578160031936011261034d576103946106c7565b6001600160a01b03919060243583811691908290036104d3577ff0c57e16840df040f15088dc2f81fe391c3923bec73e23a9662efc9c229c6a0093845460ff81881c16159467ffffffffffffffff8216801590816104cb575b60011490816104c1575b1590816104b8575b506104aa575067ffffffffffffffff19811660011786558461048b575b506bffffffffffffffffffffffff60a01b91168187541617865560015416176001558360025561044a578280f35b805468ff00000000000000001916905551600181527fc7f505b2f371ae2175ee4913f4499e1f2633a7b5936321eed1cdaeb6115181d290602090a181808280f35b68ffffffffffffffffff1916680100000000000000011785558761041c565b875163f92ee8a960e01b8152fd5b9050158a6103ff565b303b1591506103f7565b8791506103ed565b8580fd5b9050823461034d57606036600319011261034d5767ffffffffffffffff81358181116103495761050a9036908401610691565b602494919491866024358581116100fa576105289036908801610691565b959093604496604435838111610349576105459036908b01610691565b96909261055d60018060a01b0380975416331461070b565b82811480610688575b1561064d578c5b818110610578578d80f35b61058381838f610744565b35878116810361064957610598828686610744565b358a831015610636578f908360051b880135601e198936030181121561034d5788019283358a8111610221576020809501928136038413610349578493828f519384928337810185815203925af16105ee6107be565b50156105fd575060010161056d565b8c7510985d18da08195e1958dd5d1a5bdb8819985a5b195960521b8d60168e6064958e519562461bcd60e51b8752860152840152820152fd5b50634e487b7160e01b8f5260328d528a8ffd5b8e80fd5b865162461bcd60e51b81526020818d01526015602482015274082e4e4c2f240d8cadccee8d040dad2e6dac2e8c6d605b1b6044820152606490fd5b50878114610566565b9181601f840112156106c25782359167ffffffffffffffff83116106c2576020808501948460051b0101116106c257565b600080fd5b600435906001600160a01b03821682036106c257565b9181601f840112156106c25782359167ffffffffffffffff83116106c257602083818601950101116106c257565b1561071257565b60405162461bcd60e51b815260206004820152600a60248201526927b7363c9037bbb732b960b11b6044820152606490fd5b91908110156107545760051b0190565b634e487b7160e01b600052603260045260246000fd5b90601f8019910116810190811067ffffffffffffffff82111761078c57604052565b634e487b7160e01b600052604160045260246000fd5b67ffffffffffffffff811161078c57601f01601f191660200190565b3d156107e9573d906107cf826107a2565b916107dd604051938461076a565b82523d6000602084013e565b606090565b156107f557565b60405162461bcd60e51b815260206004820152600f60248201526e13db9b1e48115b9d1c9e541bda5b9d608a1b6044820152606490fd5b815191906041830361085d5761085692506020820151906060604084015193015160001a906108ed565b9192909190565b505060009160029190565b60048110156108d7578061087a575050565b600181036108945760405163f645eedf60e01b8152600490fd5b600281036108b55760405163fce698f760e01b815260048101839052602490fd5b6003146108bf5750565b602490604051906335e2f38360e21b82526004820152fd5b634e487b7160e01b600052602160045260246000fd5b91907f7fffffffffffffffffffffffffffffff5d576e7357a4501ddfe92f46681b20a0841161097157926020929160ff608095604051948552168484015260408301526060820152600092839182805260015afa156109655780516001600160a01b0381161561095c57918190565b50809160019190565b604051903d90823e3d90fd5b5050506000916003919056fea26469706673582212207398a514592350a1fba5679efb9b49dba55ab9c483a71baec2f4127d18bccf9764736f6c63430008180033",
  "linkReferences": {},
  "deployedLinkReferences": {}
}